{
  "_format": "hh-sol-artifact-1",
  "contractName": "SwapperV2",
  "sourceName": "contracts/SwapperV2.sol",
  "abi": [
    {
      "anonymous": false,
      "inputs": [
        {
          "indexed": false,
          "internalType": "address",
          "name": "recipient",
          "type": "address"
        },
        {
          "indexed": false,
          "internalType": "address",
          "name": "inputToken",
          "type": "address"
        },
        {
          "indexed": false,
          "internalType": "address",
          "name": "outputToken",
          "type": "address"
        },
        {
          "indexed": false,
          "internalType": "uint256",
          "name": "amountIn",
          "type": "uint256"
        },
        {
          "indexed": false,
          "internalType": "uint256",
          "name": "amountOut",
          "type": "uint256"
        }
      ],
      "name": "exactInputEvent",
      "type": "event"
    },
    {
      "anonymous": false,
      "inputs": [
        {
          "indexed": false,
          "internalType": "address",
          "name": "recipient",
          "type": "address"
        },
        {
          "indexed": false,
          "internalType": "address",
          "name": "inputToken",
          "type": "address"
        },
        {
          "indexed": false,
          "internalType": "address",
          "name": "outputToken",
          "type": "address"
        },
        {
          "indexed": false,
          "internalType": "uint256",
          "name": "amountIn",
          "type": "uint256"
        },
        {
          "indexed": false,
          "internalType": "uint256",
          "name": "amountOut",
          "type": "uint256"
        },
        {
          "indexed": false,
          "internalType": "uint256",
          "name": "refund",
          "type": "uint256"
        }
      ],
      "name": "exactOutputEvent",
      "type": "event"
    },
    {
      "anonymous": false,
      "inputs": [
        {
          "indexed": false,
          "internalType": "address",
          "name": "recipient",
          "type": "address"
        },
        {
          "indexed": false,
          "internalType": "uint256",
          "name": "amount",
          "type": "uint256"
        }
      ],
      "name": "tonToWTON",
      "type": "event"
    },
    {
      "anonymous": false,
      "inputs": [
        {
          "indexed": false,
          "internalType": "address",
          "name": "recipient",
          "type": "address"
        },
        {
          "indexed": false,
          "internalType": "uint256",
          "name": "amount",
          "type": "uint256"
        }
      ],
      "name": "wtonToTON",
      "type": "event"
    },
    {
      "inputs": [],
      "name": "_WETH",
      "outputs": [
        {
          "internalType": "contract IWETH",
          "name": "",
          "type": "address"
        }
      ],
      "stateMutability": "view",
      "type": "function"
    },
    {
      "inputs": [
        {
          "internalType": "bytes",
          "name": "path",
          "type": "bytes"
        }
      ],
      "name": "decodeLastPool",
      "outputs": [
        {
          "internalType": "address",
          "name": "tokenA",
          "type": "address"
        },
        {
          "internalType": "address",
          "name": "tokenB",
          "type": "address"
        },
        {
          "internalType": "uint24",
          "name": "fee",
          "type": "uint24"
        }
      ],
      "stateMutability": "pure",
      "type": "function"
    },
    {
      "inputs": [
        {
          "components": [
            {
              "internalType": "bytes",
              "name": "path",
              "type": "bytes"
            },
            {
              "internalType": "address",
              "name": "recipient",
              "type": "address"
            },
            {
              "internalType": "uint256",
              "name": "deadline",
              "type": "uint256"
            },
            {
              "internalType": "uint256",
              "name": "amountIn",
              "type": "uint256"
            },
            {
              "internalType": "uint256",
              "name": "amountOutMinimum",
              "type": "uint256"
            }
          ],
          "internalType": "struct ISwapRouter.ExactInputParams",
          "name": "params",
          "type": "tuple"
        },
        {
          "internalType": "bool",
          "name": "_wrapEth",
          "type": "bool"
        },
        {
          "internalType": "bool",
          "name": "_inputWrapWTON",
          "type": "bool"
        },
        {
          "internalType": "bool",
          "name": "_outputUnwrapTON",
          "type": "bool"
        }
      ],
      "name": "exactInput",
      "outputs": [
        {
          "internalType": "uint256",
          "name": "amountOut",
          "type": "uint256"
        }
      ],
      "stateMutability": "payable",
      "type": "function"
    },
    {
      "inputs": [
        {
          "components": [
            {
              "internalType": "bytes",
              "name": "path",
              "type": "bytes"
            },
            {
              "internalType": "address",
              "name": "recipient",
              "type": "address"
            },
            {
              "internalType": "uint256",
              "name": "deadline",
              "type": "uint256"
            },
            {
              "internalType": "uint256",
              "name": "amountOut",
              "type": "uint256"
            },
            {
              "internalType": "uint256",
              "name": "amountInMaximum",
              "type": "uint256"
            }
          ],
          "internalType": "struct ISwapRouter.ExactOutputParams",
          "name": "params",
          "type": "tuple"
        },
        {
          "internalType": "bool",
          "name": "_wrapEth",
          "type": "bool"
        },
        {
          "internalType": "bool",
          "name": "_inputWrapWTON",
          "type": "bool"
        },
        {
          "internalType": "bool",
          "name": "_outputUnwrapTON",
          "type": "bool"
        }
      ],
      "name": "exactOutput",
      "outputs": [
        {
          "internalType": "uint256",
          "name": "amountIn",
          "type": "uint256"
        }
      ],
      "stateMutability": "payable",
      "type": "function"
    },
    {
      "inputs": [
        {
          "internalType": "address",
          "name": "sender",
          "type": "address"
        },
        {
          "internalType": "address",
          "name": "spender",
          "type": "address"
        },
        {
          "internalType": "uint256",
          "name": "transferAmount",
          "type": "uint256"
        },
        {
          "internalType": "bytes",
          "name": "data",
          "type": "bytes"
        }
      ],
      "name": "onApprove",
      "outputs": [
        {
          "internalType": "bool",
          "name": "",
          "type": "bool"
        }
      ],
      "stateMutability": "nonpayable",
      "type": "function"
    },
    {
      "inputs": [],
      "name": "ton",
      "outputs": [
        {
          "internalType": "address",
          "name": "",
          "type": "address"
        }
      ],
      "stateMutability": "view",
      "type": "function"
    },
    {
      "inputs": [
        {
          "internalType": "uint256",
          "name": "_amount",
          "type": "uint256"
        }
      ],
      "name": "tonToWton",
      "outputs": [],
      "stateMutability": "nonpayable",
      "type": "function"
    },
    {
      "inputs": [],
      "name": "tos",
      "outputs": [
        {
          "internalType": "address",
          "name": "",
          "type": "address"
        }
      ],
      "stateMutability": "view",
      "type": "function"
    },
    {
      "inputs": [],
      "name": "uniswapRouter",
      "outputs": [
        {
          "internalType": "contract ISwapRouter",
          "name": "",
          "type": "address"
        }
      ],
      "stateMutability": "view",
      "type": "function"
    },
    {
      "inputs": [],
      "name": "wton",
      "outputs": [
        {
          "internalType": "address",
          "name": "",
          "type": "address"
        }
      ],
      "stateMutability": "view",
      "type": "function"
    },
    {
      "inputs": [
        {
          "internalType": "uint256",
          "name": "_amount",
          "type": "uint256"
        }
      ],
      "name": "wtonToTon",
      "outputs": [],
      "stateMutability": "nonpayable",
      "type": "function"
    }
  ],
  "bytecode": "0x608060405234801561001057600080fd5b50613de3806100206000396000f3fe60806040526004361061009c5760003560e01c806389f395de1161006457806389f395de146101a15780638d62d949146101cc57806393c8068f146101f7578063cc48b94714610220578063e0af36161461024b578063f1eb26fc146102765761009c565b806313e76be7146100a15780634273ca16146100e0578063454797491461011d5780635b41cd0514610146578063735de9f714610176575b600080fd5b3480156100ad57600080fd5b506100c860048036038101906100c39190612770565b6102a6565b6040516100d793929190612818565b60405180910390f35b3480156100ec57600080fd5b5061010760048036038101906101029190612911565b610320565b60405161011491906129b4565b60405180910390f35b34801561012957600080fd5b50610144600480360381019061013f91906129cf565b6109ca565b005b610160600480360381019061015b9190612ada565b6109d7565b60405161016d9190612b6c565b60405180910390f35b34801561018257600080fd5b5061018b6109f0565b6040516101989190612be6565b60405180910390f35b3480156101ad57600080fd5b506101b6610a16565b6040516101c39190612c01565b60405180910390f35b3480156101d857600080fd5b506101e1610a3c565b6040516101ee9190612c01565b60405180910390f35b34801561020357600080fd5b5061021e600480360381019061021991906129cf565b610a60565b005b34801561022c57600080fd5b50610235610a6d565b6040516102429190612c01565b60405180910390f35b34801561025757600080fd5b50610260610a93565b60405161026d9190612c3d565b60405180910390f35b610290600480360381019061028b9190612d00565b610ab9565b60405161029d9190612b6c565b60405180910390f35b600080600080602b905060006102d38287516102c29190612db2565b8388610ad29092919063ffffffff16565b90506102e9600082610bf090919063ffffffff16565b94506102ff601482610c6690919063ffffffff16565b9250610315601782610bf090919063ffffffff16565b935050509193909250565b6000600160009054906101000a900473ffffffffffffffffffffffffffffffffffffffff1673ffffffffffffffffffffffffffffffffffffffff163373ffffffffffffffffffffffffffffffffffffffff1614806103c9575060008054906101000a900473ffffffffffffffffffffffffffffffffffffffff1673ffffffffffffffffffffffffffffffffffffffff163373ffffffffffffffffffffffffffffffffffffffff16145b610408576040517f08c379a00000000000000000000000000000000000000000000000000000000081526004016103ff90612e43565b60405180910390fd5b600083839050905060a3811015806104205750601581145b61045f576040517f08c379a000000000000000000000000000000000000000000000000000000000815260040161045690612eaf565b60405180910390fd5b60a381106108ae576000806104cd60018461047a9190612db2565b87878080601f016020809104026020016040519081016040528093929190818152602001838380828437600081840152601f19601f82011690508083019250505050505050610ccd90919063ffffffff16565b60ff16146104dc5760016104df565b60005b90506000806105476002856104f49190612db2565b88888080601f016020809104026020016040519081016040528093929190818152602001838380828437600081840152601f19601f82011690508083019250505050505050610ccd90919063ffffffff16565b60ff1614610556576001610559565b60005b90506000806105c160038661056e9190612db2565b89898080601f016020809104026020016040519081016040528093929190818152602001838380828437600081840152601f19601f82011690508083019250505050505050610ccd90919063ffffffff16565b60ff16146105d05760016105d3565b60005b9050600061063d60016003876105e99190612db2565b8a8a8080601f016020809104026020016040519081016040528093929190818152602001838380828437600081840152601f19601f82011690508083019250505050505050610ad29092919063ffffffff16565b9050600081519050600061069f60008b8b8080601f016020809104026020016040519081016040528093929190818152602001838380828437600081840152601f19601f82011690508083019250505050505050610ccd90919063ffffffff16565b60ff1611156107a85760006040518060a001604052806106e3600060016074876106c99190612db2565b6106d39190612db2565b87610ad29092919063ffffffff16565b815260200161071360016074866106fa9190612db2565b6107049190612db2565b86610bf090919063ffffffff16565b73ffffffffffffffffffffffffffffffffffffffff16815260200142815260200161075f60016040866107469190612db2565b6107509190612db2565b86610d3490919063ffffffff16565b815260200161078f60016020866107769190612db2565b6107809190612db2565b86610d3490919063ffffffff16565b81525090506107a18d8286888a610d9b565b50506108a4565b60006040518060a001604052806107e3600060016074876107c99190612db2565b6107d39190612db2565b87610ad29092919063ffffffff16565b815260200161081360016074866107fa9190612db2565b6108049190612db2565b86610bf090919063ffffffff16565b73ffffffffffffffffffffffffffffffffffffffff16815260200142815260200161085f60016040866108469190612db2565b6108509190612db2565b86610d3490919063ffffffff16565b815260200161088f60016020866108769190612db2565b6108809190612db2565b86610d3490919063ffffffff16565b81525090506108a18d8286888a6113bd565b50505b50505050506109bc565b60158114156109bb5760008061091d6001846108ca9190612db2565b87878080601f016020809104026020016040519081016040528093929190818152602001838380828437600081840152601f19601f82011690508083019250505050505050610ccd90919063ffffffff16565b60ff161461092c57600161092f565b60005b905060006109966015846109439190612db2565b87878080601f016020809104026020016040519081016040528093929190818152602001838380828437600081840152601f19601f82011690508083019250505050505050610bf090919063ffffffff16565b905081156109ad576109a88188611859565b6109b8565b6109b7818861198d565b5b50505b5b600191505095945050505050565b6109d43382611859565b50565b60006109e63386868686610d9b565b9050949350505050565b600460009054906101000a900473ffffffffffffffffffffffffffffffffffffffff1681565b600260009054906101000a900473ffffffffffffffffffffffffffffffffffffffff1681565b60008054906101000a900473ffffffffffffffffffffffffffffffffffffffff1681565b610a6a338261198d565b50565b600160009054906101000a900473ffffffffffffffffffffffffffffffffffffffff1681565b600360009054906101000a900473ffffffffffffffffffffffffffffffffffffffff1681565b6000610ac833868686866113bd565b9050949350505050565b606081601f83610ae29190612ecf565b1015610b23576040517f08c379a0000000000000000000000000000000000000000000000000000000008152600401610b1a90612f71565b60405180910390fd5b8183610b2f9190612ecf565b84511015610b72576040517f08c379a0000000000000000000000000000000000000000000000000000000008152600401610b6990612fdd565b60405180910390fd5b6060821560008114610b935760405191506000825260208201604052610be4565b6040519150601f8416801560200281840101858101878315602002848b0101015b81831015610bd15780518352602083019250602081019050610bb4565b50868552601f19601f8301166040525050505b50809150509392505050565b6000601482610bff9190612ecf565b83511015610c42576040517f08c379a0000000000000000000000000000000000000000000000000000000008152600401610c3990613049565b60405180910390fd5b60006c01000000000000000000000000836020860101510490508091505092915050565b6000600382610c759190612ecf565b83511015610cb8576040517f08c379a0000000000000000000000000000000000000000000000000000000008152600401610caf906130b5565b60405180910390fd5b60008260038501015190508091505092915050565b6000600182610cdc9190612ecf565b83511015610d1f576040517f08c379a0000000000000000000000000000000000000000000000000000000008152600401610d1690613121565b60405180910390fd5b60008260018501015190508091505092915050565b6000602082610d439190612ecf565b83511015610d86576040517f08c379a0000000000000000000000000000000000000000000000000000000008152600401610d7d9061318d565b60405180910390fd5b60008260208501015190508091505092915050565b60008573ffffffffffffffffffffffffffffffffffffffff16856020015173ffffffffffffffffffffffffffffffffffffffff1614610e0f576040517f08c379a0000000000000000000000000000000000000000000000000000000008152600401610e06906131f9565b60405180910390fd5b6000806000806000610e2f8b8b600001518c608001518c8c8c6001611ab6565b9450945094509450945060008a6020015190508715610e4c573090505b8a608001518573ffffffffffffffffffffffffffffffffffffffff1663dd62ed3e30600460009054906101000a900473ffffffffffffffffffffffffffffffffffffffff166040518363ffffffff1660e01b8152600401610eae929190613219565b602060405180830381865afa158015610ecb573d6000803e3d6000fd5b505050506040513d601f19601f82011682018060405250810190610eef9190613257565b1015610f9b578473ffffffffffffffffffffffffffffffffffffffff1663095ea7b3600460009054906101000a900473ffffffffffffffffffffffffffffffffffffffff168d608001516040518363ffffffff1660e01b8152600401610f56929190613284565b6020604051808303816000875af1158015610f75573d6000803e3d6000fd5b505050506040513d601f19601f82011682018060405250810190610f9991906132c2565b505b600186141561111d578815610fd357633b9aca00808c60800151610fbf919061331e565b610fc9919061334f565b8b60800181815250505b60006040518061010001604052808773ffffffffffffffffffffffffffffffffffffffff1681526020018673ffffffffffffffffffffffffffffffffffffffff1681526020018462ffffff1681526020018373ffffffffffffffffffffffffffffffffffffffff1681526020014281526020018d6060015181526020018d608001518152602001600073ffffffffffffffffffffffffffffffffffffffff168152509050600460009054906101000a900473ffffffffffffffffffffffffffffffffffffffff1673ffffffffffffffffffffffffffffffffffffffff1663db3e2198826040518263ffffffff1660e01b81526004016110d29190613487565b6020604051808303816000875af11580156110f1573d6000803e3d6000fd5b505050506040513d601f19601f820116820180604052508101906111159190613257565b975050611219565b8a600001518b60000181905250808b6020019073ffffffffffffffffffffffffffffffffffffffff16908173ffffffffffffffffffffffffffffffffffffffff1681525050600c4261116f9190612ecf565b8b6040018181525050600460009054906101000a900473ffffffffffffffffffffffffffffffffffffffff1673ffffffffffffffffffffffffffffffffffffffff1663f28c04988c6040518263ffffffff1660e01b81526004016111d391906135a1565b6020604051808303816000875af11580156111f2573d6000803e3d6000fd5b505050506040513d601f19601f820116820180604052508101906112169190613257565b96505b87156112c35760008054906101000a900473ffffffffffffffffffffffffffffffffffffffff1673ffffffffffffffffffffffffffffffffffffffff1663e3b99e858d8d606001516040518363ffffffff1660e01b815260040161127e929190613284565b6020604051808303816000875af115801561129d573d6000803e3d6000fd5b505050506040513d601f19601f820116820180604052508101906112c191906132c2565b505b6000808c6060015190508c6080015189101561136b57888d608001516112e99190612db2565b91508673ffffffffffffffffffffffffffffffffffffffff1663a9059cbb8f846040518363ffffffff1660e01b8152600401611326929190613284565b6020604051808303816000875af1158015611345573d6000803e3d6000fd5b505050506040513d601f19601f8201168201806040525081019061136991906132c2565b505b7f33e0e27faa3fa37cdab92b721d8104b00d223a5ff50bd1c311ef12a2debc7ca08e88878c85876040516113a4969594939291906135c3565b60405180910390a1505050505050505095945050505050565b60008573ffffffffffffffffffffffffffffffffffffffff16856020015173ffffffffffffffffffffffffffffffffffffffff1614611431576040517f08c379a0000000000000000000000000000000000000000000000000000000008152600401611428906131f9565b60405180910390fd5b60008060008060006114518b8b600001518c606001518c8c8c6000611ab6565b9450945094509450945060008a602001519050871561146e573090505b8473ffffffffffffffffffffffffffffffffffffffff1663095ea7b3600460009054906101000a900473ffffffffffffffffffffffffffffffffffffffff168d606001516040518363ffffffff1660e01b81526004016114cf929190613284565b6020604051808303816000875af11580156114ee573d6000803e3d6000fd5b505050506040513d601f19601f8201168201806040525081019061151291906132c2565b5060018614156116725760006040518061010001604052808773ffffffffffffffffffffffffffffffffffffffff1681526020018673ffffffffffffffffffffffffffffffffffffffff1681526020018462ffffff1681526020018373ffffffffffffffffffffffffffffffffffffffff168152602001600c426115969190612ecf565b81526020018d6060015181526020018d608001518152602001600073ffffffffffffffffffffffffffffffffffffffff168152509050600460009054906101000a900473ffffffffffffffffffffffffffffffffffffffff1673ffffffffffffffffffffffffffffffffffffffff1663414bf389826040518263ffffffff1660e01b815260040161162791906136c6565b6020604051808303816000875af1158015611646573d6000803e3d6000fd5b505050506040513d601f19601f8201168201806040525081019061166a9190613257565b975050611761565b808b6020019073ffffffffffffffffffffffffffffffffffffffff16908173ffffffffffffffffffffffffffffffffffffffff1681525050600c426116b79190612ecf565b8b6040018181525050600460009054906101000a900473ffffffffffffffffffffffffffffffffffffffff1673ffffffffffffffffffffffffffffffffffffffff1663c04b8d598c6040518263ffffffff1660e01b815260040161171b9190613758565b6020604051808303816000875af115801561173a573d6000803e3d6000fd5b505050506040513d601f19601f8201168201806040525081019061175e9190613257565b96505b87156118075760008054906101000a900473ffffffffffffffffffffffffffffffffffffffff1673ffffffffffffffffffffffffffffffffffffffff1663e3b99e858d896040518363ffffffff1660e01b81526004016117c2929190613284565b6020604051808303816000875af11580156117e1573d6000803e3d6000fd5b505050506040513d601f19601f8201168201806040525081019061180591906132c2565b505b7ff1d30a3616de690fca72248cd0bb8366127fa67d953d4f1968af158869b361098c86858e606001518b60405161184295949392919061377a565b60405180910390a150505050505095945050505050565b611862816120dd565b6118b1823083600160009054906101000a900473ffffffffffffffffffffffffffffffffffffffff1673ffffffffffffffffffffffffffffffffffffffff16612287909392919063ffffffff16565b60008054906101000a900473ffffffffffffffffffffffffffffffffffffffff1673ffffffffffffffffffffffffffffffffffffffff1663588420b783836040518363ffffffff1660e01b815260040161190c929190613284565b6020604051808303816000875af115801561192b573d6000803e3d6000fd5b505050506040513d601f19601f8201168201806040525081019061194f91906132c2565b507f6d7e5b7860423e7ae6337b3312858f1bd1e5d03c01bf74f7f553302d38536e5e8282604051611981929190613284565b60405180910390a15050565b6119da82308360008054906101000a900473ffffffffffffffffffffffffffffffffffffffff1673ffffffffffffffffffffffffffffffffffffffff16612287909392919063ffffffff16565b60008054906101000a900473ffffffffffffffffffffffffffffffffffffffff1673ffffffffffffffffffffffffffffffffffffffff1663e3b99e8583836040518363ffffffff1660e01b8152600401611a35929190613284565b6020604051808303816000875af1158015611a54573d6000803e3d6000fd5b505050506040513d601f19601f82011682018060405250810190611a7891906132c2565b507f3c63554bb34538bf8439bfc115e4c4810b143bc5432b59990a5ff71094c0734e8282604051611aaa929190613284565b60405180910390a15050565b6000806000806000611ac78b612310565b945060008511611b0c576040517f08c379a0000000000000000000000000000000000000000000000000000000008152600401611b0390613819565b60405180910390fd5b8515611b3c57611b1b8b6102a6565b809350819650829550505050611b308b61233f565b90505080925050611b63565b611b458b61233f565b809350819550829650505050611b5a8b6102a6565b90915050809250505b8273ffffffffffffffffffffffffffffffffffffffff168473ffffffffffffffffffffffffffffffffffffffff161415611bd2576040517f08c379a0000000000000000000000000000000000000000000000000000000008152600401611bc990613885565b60405180910390fd5b8815611c6957600360009054906101000a900473ffffffffffffffffffffffffffffffffffffffff1673ffffffffffffffffffffffffffffffffffffffff168473ffffffffffffffffffffffffffffffffffffffff1614611c68576040517f08c379a0000000000000000000000000000000000000000000000000000000008152600401611c5f906138f1565b60405180910390fd5b5b8715611cfe5760008054906101000a900473ffffffffffffffffffffffffffffffffffffffff1673ffffffffffffffffffffffffffffffffffffffff168473ffffffffffffffffffffffffffffffffffffffff1614611cfd576040517f08c379a0000000000000000000000000000000000000000000000000000000008152600401611cf49061395d565b60405180910390fd5b5b868015611d0b5750600185145b15611da35760008054906101000a900473ffffffffffffffffffffffffffffffffffffffff1673ffffffffffffffffffffffffffffffffffffffff168373ffffffffffffffffffffffffffffffffffffffff1614611d9e576040517f08c379a0000000000000000000000000000000000000000000000000000000008152600401611d95906139c9565b60405180910390fd5b611e39565b8615611e385760008054906101000a900473ffffffffffffffffffffffffffffffffffffffff1673ffffffffffffffffffffffffffffffffffffffff168273ffffffffffffffffffffffffffffffffffffffff1614611e37576040517f08c379a0000000000000000000000000000000000000000000000000000000008152600401611e2e906139c9565b60405180910390fd5b5b5b8815611f0957893414611e81576040517f08c379a0000000000000000000000000000000000000000000000000000000008152600401611e7890613a35565b60405180910390fd5b600360009054906101000a900473ffffffffffffffffffffffffffffffffffffffff1673ffffffffffffffffffffffffffffffffffffffff1663d0e30db08b6040518263ffffffff1660e01b81526004016000604051808303818588803b158015611eeb57600080fd5b505af1158015611eff573d6000803e3d6000fd5b50505050506120ce565b60003414611f4c576040517f08c379a0000000000000000000000000000000000000000000000000000000008152600401611f4390613aa1565b60405180910390fd5b871561209f576000633b9aca008b611f64919061331e565b9050611f6f816120dd565b611fbe8d3083600160009054906101000a900473ffffffffffffffffffffffffffffffffffffffff1673ffffffffffffffffffffffffffffffffffffffff16612287909392919063ffffffff16565b60008054906101000a900473ffffffffffffffffffffffffffffffffffffffff1673ffffffffffffffffffffffffffffffffffffffff1663e34869d7826040518263ffffffff1660e01b81526004016120179190612b6c565b6020604051808303816000875af1158015612036573d6000803e3d6000fd5b505050506040513d601f19601f8201168201806040525081019061205a91906132c2565b612099576040517f08c379a000000000000000000000000000000000000000000000000000000000815260040161209090613b0d565b60405180910390fd5b506120cd565b6120cc8c308c8773ffffffffffffffffffffffffffffffffffffffff16612287909392919063ffffffff16565b5b5b97509750975097509792505050565b80600160009054906101000a900473ffffffffffffffffffffffffffffffffffffffff1673ffffffffffffffffffffffffffffffffffffffff1663dd62ed3e3060008054906101000a900473ffffffffffffffffffffffffffffffffffffffff166040518363ffffffff1660e01b815260040161215b929190613219565b602060405180830381865afa158015612178573d6000803e3d6000fd5b505050506040513d601f19601f8201168201806040525081019061219c9190613257565b101561228457600160009054906101000a900473ffffffffffffffffffffffffffffffffffffffff1673ffffffffffffffffffffffffffffffffffffffff1663095ea7b360008054906101000a900473ffffffffffffffffffffffffffffffffffffffff167fffffffffffffffffffffffffffffffffffffffffffffffffffffffffffffffff6040518363ffffffff1660e01b815260040161223f929190613284565b6020604051808303816000875af115801561225e573d6000803e3d6000fd5b505050506040513d601f19601f8201168201806040525081019061228291906132c2565b505b50565b61230a846323b872dd60e01b8585856040516024016122a893929190613b2d565b604051602081830303815290604052907bffffffffffffffffffffffffffffffffffffffffffffffffffffffff19166020820180517bffffffffffffffffffffffffffffffffffffffffffffffffffffffff8381831617835250505050612399565b50505050565b6000600360146123209190612ecf565b6014835161232e9190612db2565b612338919061331e565b9050919050565b6000806000612358600085610bf090919063ffffffff16565b925061236e601485610c6690919063ffffffff16565b9050612390600360146123819190612ecf565b85610bf090919063ffffffff16565b91509193909250565b60006123fb826040518060400160405280602081526020017f5361666545524332303a206c6f772d6c6576656c2063616c6c206661696c65648152508573ffffffffffffffffffffffffffffffffffffffff166124609092919063ffffffff16565b905060008151111561245b578080602001905181019061241b91906132c2565b61245a576040517f08c379a000000000000000000000000000000000000000000000000000000000815260040161245190613bd6565b60405180910390fd5b5b505050565b606061246f8484600085612478565b90509392505050565b6060824710156124bd576040517f08c379a00000000000000000000000000000000000000000000000000000000081526004016124b490613c68565b60405180910390fd5b6124c68561258c565b612505576040517f08c379a00000000000000000000000000000000000000000000000000000000081526004016124fc90613cd4565b60405180910390fd5b6000808673ffffffffffffffffffffffffffffffffffffffff16858760405161252e9190613d30565b60006040518083038185875af1925050503d806000811461256b576040519150601f19603f3d011682016040523d82523d6000602084013e612570565b606091505b50915091506125808282866125af565b92505050949350505050565b6000808273ffffffffffffffffffffffffffffffffffffffff163b119050919050565b606083156125bf5782905061260f565b6000835111156125d25782518084602001fd5b816040517f08c379a00000000000000000000000000000000000000000000000000000000081526004016126069190613d8b565b60405180910390fd5b9392505050565b6000604051905090565b600080fd5b600080fd5b600080fd5b600080fd5b6000601f19601f8301169050919050565b7f4e487b7100000000000000000000000000000000000000000000000000000000600052604160045260246000fd5b61267d82612634565b810181811067ffffffffffffffff8211171561269c5761269b612645565b5b80604052505050565b60006126af612616565b90506126bb8282612674565b919050565b600067ffffffffffffffff8211156126db576126da612645565b5b6126e482612634565b9050602081019050919050565b82818337600083830152505050565b600061271361270e846126c0565b6126a5565b90508281526020810184848401111561272f5761272e61262f565b5b61273a8482856126f1565b509392505050565b600082601f8301126127575761275661262a565b5b8135612767848260208601612700565b91505092915050565b60006020828403121561278657612785612620565b5b600082013567ffffffffffffffff8111156127a4576127a3612625565b5b6127b084828501612742565b91505092915050565b600073ffffffffffffffffffffffffffffffffffffffff82169050919050565b60006127e4826127b9565b9050919050565b6127f4816127d9565b82525050565b600062ffffff82169050919050565b612812816127fa565b82525050565b600060608201905061282d60008301866127eb565b61283a60208301856127eb565b6128476040830184612809565b949350505050565b612858816127d9565b811461286357600080fd5b50565b6000813590506128758161284f565b92915050565b6000819050919050565b61288e8161287b565b811461289957600080fd5b50565b6000813590506128ab81612885565b92915050565b600080fd5b600080fd5b60008083601f8401126128d1576128d061262a565b5b8235905067ffffffffffffffff8111156128ee576128ed6128b1565b5b60208301915083600182028301111561290a576129096128b6565b5b9250929050565b60008060008060006080868803121561292d5761292c612620565b5b600061293b88828901612866565b955050602061294c88828901612866565b945050604061295d8882890161289c565b935050606086013567ffffffffffffffff81111561297e5761297d612625565b5b61298a888289016128bb565b92509250509295509295909350565b60008115159050919050565b6129ae81612999565b82525050565b60006020820190506129c960008301846129a5565b92915050565b6000602082840312156129e5576129e4612620565b5b60006129f38482850161289c565b91505092915050565b600080fd5b600080fd5b600060a08284031215612a1c57612a1b6129fc565b5b612a2660a06126a5565b9050600082013567ffffffffffffffff811115612a4657612a45612a01565b5b612a5284828501612742565b6000830152506020612a6684828501612866565b6020830152506040612a7a8482850161289c565b6040830152506060612a8e8482850161289c565b6060830152506080612aa28482850161289c565b60808301525092915050565b612ab781612999565b8114612ac257600080fd5b50565b600081359050612ad481612aae565b92915050565b60008060008060808587031215612af457612af3612620565b5b600085013567ffffffffffffffff811115612b1257612b11612625565b5b612b1e87828801612a06565b9450506020612b2f87828801612ac5565b9350506040612b4087828801612ac5565b9250506060612b5187828801612ac5565b91505092959194509250565b612b668161287b565b82525050565b6000602082019050612b816000830184612b5d565b92915050565b6000819050919050565b6000612bac612ba7612ba2846127b9565b612b87565b6127b9565b9050919050565b6000612bbe82612b91565b9050919050565b6000612bd082612bb3565b9050919050565b612be081612bc5565b82525050565b6000602082019050612bfb6000830184612bd7565b92915050565b6000602082019050612c1660008301846127eb565b92915050565b6000612c2782612bb3565b9050919050565b612c3781612c1c565b82525050565b6000602082019050612c526000830184612c2e565b92915050565b600060a08284031215612c6e57612c6d6129fc565b5b612c7860a06126a5565b9050600082013567ffffffffffffffff811115612c9857612c97612a01565b5b612ca484828501612742565b6000830152506020612cb884828501612866565b6020830152506040612ccc8482850161289c565b6040830152506060612ce08482850161289c565b6060830152506080612cf48482850161289c565b60808301525092915050565b60008060008060808587031215612d1a57612d19612620565b5b600085013567ffffffffffffffff811115612d3857612d37612625565b5b612d4487828801612c58565b9450506020612d5587828801612ac5565b9350506040612d6687828801612ac5565b9250506060612d7787828801612ac5565b91505092959194509250565b7f4e487b7100000000000000000000000000000000000000000000000000000000600052601160045260246000fd5b6000612dbd8261287b565b9150612dc88361287b565b925082821015612ddb57612dda612d83565b5b828203905092915050565b600082825260208201905092915050565b7f73656e646572206973206e6f7420746f6e206f722077746f6e2e000000000000600082015250565b6000612e2d601a83612de6565b9150612e3882612df7565b602082019050919050565b60006020820190508181036000830152612e5c81612e20565b9050919050565b7f646174612e6c656e677468206e6565642074686520313633206f766572000000600082015250565b6000612e99601d83612de6565b9150612ea482612e63565b602082019050919050565b60006020820190508181036000830152612ec881612e8c565b9050919050565b6000612eda8261287b565b9150612ee58361287b565b9250827fffffffffffffffffffffffffffffffffffffffffffffffffffffffffffffffff03821115612f1a57612f19612d83565b5b828201905092915050565b7f736c6963655f6f766572666c6f77000000000000000000000000000000000000600082015250565b6000612f5b600e83612de6565b9150612f6682612f25565b602082019050919050565b60006020820190508181036000830152612f8a81612f4e565b9050919050565b7f736c6963655f6f75744f66426f756e6473000000000000000000000000000000600082015250565b6000612fc7601183612de6565b9150612fd282612f91565b602082019050919050565b60006020820190508181036000830152612ff681612fba565b9050919050565b7f746f416464726573735f6f75744f66426f756e64730000000000000000000000600082015250565b6000613033601583612de6565b915061303e82612ffd565b602082019050919050565b6000602082019050818103600083015261306281613026565b9050919050565b7f746f55696e7432345f6f75744f66426f756e6473000000000000000000000000600082015250565b600061309f601483612de6565b91506130aa82613069565b602082019050919050565b600060208201905081810360008301526130ce81613092565b9050919050565b7f746f55696e74385f6f75744f66426f756e647300000000000000000000000000600082015250565b600061310b601383612de6565b9150613116826130d5565b602082019050919050565b6000602082019050818103600083015261313a816130fe565b9050919050565b7f746f55696e743235365f6f75744f66426f756e64730000000000000000000000600082015250565b6000613177601583612de6565b915061318282613141565b602082019050919050565b600060208201905081810360008301526131a68161316a565b9050919050565b7f726563697069656e74206973206e6f742073656e646572000000000000000000600082015250565b60006131e3601783612de6565b91506131ee826131ad565b602082019050919050565b60006020820190508181036000830152613212816131d6565b9050919050565b600060408201905061322e60008301856127eb565b61323b60208301846127eb565b9392505050565b60008151905061325181612885565b92915050565b60006020828403121561326d5761326c612620565b5b600061327b84828501613242565b91505092915050565b600060408201905061329960008301856127eb565b6132a66020830184612b5d565b9392505050565b6000815190506132bc81612aae565b92915050565b6000602082840312156132d8576132d7612620565b5b60006132e6848285016132ad565b91505092915050565b7f4e487b7100000000000000000000000000000000000000000000000000000000600052601260045260246000fd5b60006133298261287b565b91506133348361287b565b925082613344576133436132ef565b5b828204905092915050565b600061335a8261287b565b91506133658361287b565b9250817fffffffffffffffffffffffffffffffffffffffffffffffffffffffffffffffff048311821515161561339e5761339d612d83565b5b828202905092915050565b6133b2816127d9565b82525050565b6133c1816127fa565b82525050565b6133d08161287b565b82525050565b6133df816127b9565b82525050565b610100820160008201516133fc60008501826133a9565b50602082015161340f60208501826133a9565b50604082015161342260408501826133b8565b50606082015161343560608501826133a9565b50608082015161344860808501826133c7565b5060a082015161345b60a08501826133c7565b5060c082015161346e60c08501826133c7565b5060e082015161348160e08501826133d6565b50505050565b60006101008201905061349d60008301846133e5565b92915050565b600081519050919050565b600082825260208201905092915050565b60005b838110156134dd5780820151818401526020810190506134c2565b838111156134ec576000848401525b50505050565b60006134fd826134a3565b61350781856134ae565b93506135178185602086016134bf565b61352081612634565b840191505092915050565b600060a083016000830151848203600086015261354882826134f2565b915050602083015161355d60208601826133a9565b50604083015161357060408601826133c7565b50606083015161358360608601826133c7565b50608083015161359660808601826133c7565b508091505092915050565b600060208201905081810360008301526135bb818461352b565b905092915050565b600060c0820190506135d860008301896127eb565b6135e560208301886127eb565b6135f260408301876127eb565b6135ff6060830186612b5d565b61360c6080830185612b5d565b61361960a0830184612b5d565b979650505050505050565b6101008201600082015161363b60008501826133a9565b50602082015161364e60208501826133a9565b50604082015161366160408501826133b8565b50606082015161367460608501826133a9565b50608082015161368760808501826133c7565b5060a082015161369a60a08501826133c7565b5060c08201516136ad60c08501826133c7565b5060e08201516136c060e08501826133d6565b50505050565b6000610100820190506136dc6000830184613624565b92915050565b600060a08301600083015184820360008601526136ff82826134f2565b915050602083015161371460208601826133a9565b50604083015161372760408601826133c7565b50606083015161373a60608601826133c7565b50608083015161374d60808601826133c7565b508091505092915050565b6000602082019050818103600083015261377281846136e2565b905092915050565b600060a08201905061378f60008301886127eb565b61379c60208301876127eb565b6137a960408301866127eb565b6137b66060830185612b5d565b6137c36080830184612b5d565b9695505050505050565b7f77726f6e67207061746800000000000000000000000000000000000000000000600082015250565b6000613803600a83612de6565b915061380e826137cd565b602082019050919050565b60006020820190508181036000830152613832816137f6565b9050919050565b7f73616d6520746f6b656e496e202c20746f6b656e4f7574000000000000000000600082015250565b600061386f601783612de6565b915061387a82613839565b602082019050919050565b6000602082019050818103600083015261389e81613862565b9050919050565b7f746f6b656e496e206973206e6f74205745544800000000000000000000000000600082015250565b60006138db601383612de6565b91506138e6826138a5565b602082019050919050565b6000602082019050818103600083015261390a816138ce565b9050919050565b7f746f6b656e496e206973206e6f742057544f4e00000000000000000000000000600082015250565b6000613947601383612de6565b915061395282613911565b602082019050919050565b600060208201905081810360008301526139768161393a565b9050919050565b7f746f6b656e4f7574206973206e6f742057544f4e000000000000000000000000600082015250565b60006139b3601483612de6565b91506139be8261397d565b602082019050919050565b600060208201905081810360008301526139e2816139a6565b9050919050565b7f77726f6e67206d73672e76616c75650000000000000000000000000000000000600082015250565b6000613a1f600f83612de6565b9150613a2a826139e9565b602082019050919050565b60006020820190508181036000830152613a4e81613a12565b9050919050565b7f6d73672e76616c75652073686f756c6420626520300000000000000000000000600082015250565b6000613a8b601583612de6565b9150613a9682613a55565b602082019050919050565b60006020820190508181036000830152613aba81613a7e565b9050919050565b7f77746f6e207377617046726f6d544f4e206661696c0000000000000000000000600082015250565b6000613af7601583612de6565b9150613b0282613ac1565b602082019050919050565b60006020820190508181036000830152613b2681613aea565b9050919050565b6000606082019050613b4260008301866127eb565b613b4f60208301856127eb565b613b5c6040830184612b5d565b949350505050565b7f5361666545524332303a204552433230206f7065726174696f6e20646964206e60008201527f6f74207375636365656400000000000000000000000000000000000000000000602082015250565b6000613bc0602a83612de6565b9150613bcb82613b64565b604082019050919050565b60006020820190508181036000830152613bef81613bb3565b9050919050565b7f416464726573733a20696e73756666696369656e742062616c616e636520666f60008201527f722063616c6c0000000000000000000000000000000000000000000000000000602082015250565b6000613c52602683612de6565b9150613c5d82613bf6565b604082019050919050565b60006020820190508181036000830152613c8181613c45565b9050919050565b7f416464726573733a2063616c6c20746f206e6f6e2d636f6e7472616374000000600082015250565b6000613cbe601d83612de6565b9150613cc982613c88565b602082019050919050565b60006020820190508181036000830152613ced81613cb1565b9050919050565b600081905092915050565b6000613d0a826134a3565b613d148185613cf4565b9350613d248185602086016134bf565b80840191505092915050565b6000613d3c8284613cff565b915081905092915050565b600081519050919050565b6000613d5d82613d47565b613d678185612de6565b9350613d778185602086016134bf565b613d8081612634565b840191505092915050565b60006020820190508181036000830152613da58184613d52565b90509291505056fea264697066735822122098ea1afae06f2fe868f8d4a42d2a34889141cf161bc8e076b3ed746371dbce3264736f6c634300080c0033",
  "linkReferences": {},
  "deployedLinkReferences": {}
}