{
  "_format": "hh-sol-artifact-1",
  "contractName": "SwapperProxy",
  "sourceName": "contracts/SwapperProxy.sol",
  "abi": [
    {
      "inputs": [],
      "stateMutability": "nonpayable",
      "type": "constructor"
    },
    {
      "anonymous": false,
      "inputs": [
        {
          "indexed": true,
          "internalType": "bytes32",
          "name": "role",
          "type": "bytes32"
        },
        {
          "indexed": true,
          "internalType": "bytes32",
          "name": "previousAdminRole",
          "type": "bytes32"
        },
        {
          "indexed": true,
          "internalType": "bytes32",
          "name": "newAdminRole",
          "type": "bytes32"
        }
      ],
      "name": "RoleAdminChanged",
      "type": "event"
    },
    {
      "anonymous": false,
      "inputs": [
        {
          "indexed": true,
          "internalType": "bytes32",
          "name": "role",
          "type": "bytes32"
        },
        {
          "indexed": true,
          "internalType": "address",
          "name": "account",
          "type": "address"
        },
        {
          "indexed": true,
          "internalType": "address",
          "name": "sender",
          "type": "address"
        }
      ],
      "name": "RoleGranted",
      "type": "event"
    },
    {
      "anonymous": false,
      "inputs": [
        {
          "indexed": true,
          "internalType": "bytes32",
          "name": "role",
          "type": "bytes32"
        },
        {
          "indexed": true,
          "internalType": "address",
          "name": "account",
          "type": "address"
        },
        {
          "indexed": true,
          "internalType": "address",
          "name": "sender",
          "type": "address"
        }
      ],
      "name": "RoleRevoked",
      "type": "event"
    },
    {
      "anonymous": false,
      "inputs": [
        {
          "indexed": true,
          "internalType": "address",
          "name": "impl",
          "type": "address"
        },
        {
          "indexed": false,
          "internalType": "bool",
          "name": "alive",
          "type": "bool"
        }
      ],
      "name": "SetAliveImplementation",
      "type": "event"
    },
    {
      "anonymous": false,
      "inputs": [
        {
          "indexed": true,
          "internalType": "bytes4",
          "name": "selector",
          "type": "bytes4"
        },
        {
          "indexed": true,
          "internalType": "address",
          "name": "impl",
          "type": "address"
        }
      ],
      "name": "SetSelectorImplementation",
      "type": "event"
    },
    {
      "anonymous": false,
      "inputs": [
        {
          "indexed": true,
          "internalType": "address",
          "name": "implementation",
          "type": "address"
        }
      ],
      "name": "Upgraded",
      "type": "event"
    },
    {
      "stateMutability": "payable",
      "type": "fallback"
    },
    {
      "inputs": [],
      "name": "ADMIN_ROLE",
      "outputs": [
        {
          "internalType": "bytes32",
          "name": "",
          "type": "bytes32"
        }
      ],
      "stateMutability": "view",
      "type": "function"
    },
    {
      "inputs": [],
      "name": "DEFAULT_ADMIN_ROLE",
      "outputs": [
        {
          "internalType": "bytes32",
          "name": "",
          "type": "bytes32"
        }
      ],
      "stateMutability": "view",
      "type": "function"
    },
    {
      "inputs": [],
      "name": "_WETH",
      "outputs": [
        {
          "internalType": "contract IWETH",
          "name": "",
          "type": "address"
        }
      ],
      "stateMutability": "view",
      "type": "function"
    },
    {
      "inputs": [
        {
          "internalType": "address",
          "name": "account",
          "type": "address"
        }
      ],
      "name": "addAdmin",
      "outputs": [],
      "stateMutability": "nonpayable",
      "type": "function"
    },
    {
      "inputs": [
        {
          "internalType": "address",
          "name": "",
          "type": "address"
        }
      ],
      "name": "aliveImplementation",
      "outputs": [
        {
          "internalType": "bool",
          "name": "",
          "type": "bool"
        }
      ],
      "stateMutability": "view",
      "type": "function"
    },
    {
      "inputs": [
        {
          "internalType": "bytes32",
          "name": "role",
          "type": "bytes32"
        }
      ],
      "name": "getRoleAdmin",
      "outputs": [
        {
          "internalType": "bytes32",
          "name": "",
          "type": "bytes32"
        }
      ],
      "stateMutability": "view",
      "type": "function"
    },
    {
      "inputs": [
        {
          "internalType": "bytes4",
          "name": "_selector",
          "type": "bytes4"
        }
      ],
      "name": "getSelectorImplementation2",
      "outputs": [
        {
          "internalType": "address",
          "name": "impl",
          "type": "address"
        }
      ],
      "stateMutability": "view",
      "type": "function"
    },
    {
      "inputs": [
        {
          "internalType": "bytes32",
          "name": "role",
          "type": "bytes32"
        },
        {
          "internalType": "address",
          "name": "account",
          "type": "address"
        }
      ],
      "name": "grantRole",
      "outputs": [],
      "stateMutability": "nonpayable",
      "type": "function"
    },
    {
      "inputs": [
        {
          "internalType": "bytes32",
          "name": "role",
          "type": "bytes32"
        },
        {
          "internalType": "address",
          "name": "account",
          "type": "address"
        }
      ],
      "name": "hasRole",
      "outputs": [
        {
          "internalType": "bool",
          "name": "",
          "type": "bool"
        }
      ],
      "stateMutability": "view",
      "type": "function"
    },
    {
      "inputs": [],
      "name": "implementation",
      "outputs": [
        {
          "internalType": "address",
          "name": "",
          "type": "address"
        }
      ],
      "stateMutability": "view",
      "type": "function"
    },
    {
      "inputs": [
        {
          "internalType": "uint256",
          "name": "_index",
          "type": "uint256"
        }
      ],
      "name": "implementation2",
      "outputs": [
        {
          "internalType": "address",
          "name": "",
          "type": "address"
        }
      ],
      "stateMutability": "view",
      "type": "function"
    },
    {
      "inputs": [
        {
          "internalType": "address",
          "name": "_wton",
          "type": "address"
        },
        {
          "internalType": "address",
          "name": "_ton",
          "type": "address"
        },
        {
          "internalType": "address",
          "name": "_tos",
          "type": "address"
        },
        {
          "internalType": "address",
          "name": "_uniswapRouter",
          "type": "address"
        },
        {
          "internalType": "address",
          "name": "_weth",
          "type": "address"
        }
      ],
      "name": "initialize",
      "outputs": [],
      "stateMutability": "nonpayable",
      "type": "function"
    },
    {
      "inputs": [
        {
          "internalType": "address",
          "name": "account",
          "type": "address"
        }
      ],
      "name": "isAdmin",
      "outputs": [
        {
          "internalType": "bool",
          "name": "",
          "type": "bool"
        }
      ],
      "stateMutability": "view",
      "type": "function"
    },
    {
      "inputs": [],
      "name": "pauseProxy",
      "outputs": [
        {
          "internalType": "bool",
          "name": "",
          "type": "bool"
        }
      ],
      "stateMutability": "view",
      "type": "function"
    },
    {
      "inputs": [
        {
          "internalType": "uint256",
          "name": "",
          "type": "uint256"
        }
      ],
      "name": "proxyImplementation",
      "outputs": [
        {
          "internalType": "address",
          "name": "",
          "type": "address"
        }
      ],
      "stateMutability": "view",
      "type": "function"
    },
    {
      "inputs": [],
      "name": "removeAdmin",
      "outputs": [],
      "stateMutability": "nonpayable",
      "type": "function"
    },
    {
      "inputs": [
        {
          "internalType": "bytes32",
          "name": "role",
          "type": "bytes32"
        },
        {
          "internalType": "address",
          "name": "account",
          "type": "address"
        }
      ],
      "name": "renounceRole",
      "outputs": [],
      "stateMutability": "nonpayable",
      "type": "function"
    },
    {
      "inputs": [
        {
          "internalType": "bytes32",
          "name": "role",
          "type": "bytes32"
        },
        {
          "internalType": "address",
          "name": "account",
          "type": "address"
        }
      ],
      "name": "revokeRole",
      "outputs": [],
      "stateMutability": "nonpayable",
      "type": "function"
    },
    {
      "inputs": [
        {
          "internalType": "bytes4",
          "name": "",
          "type": "bytes4"
        }
      ],
      "name": "selectorImplementation",
      "outputs": [
        {
          "internalType": "address",
          "name": "",
          "type": "address"
        }
      ],
      "stateMutability": "view",
      "type": "function"
    },
    {
      "inputs": [
        {
          "internalType": "address",
          "name": "newImplementation",
          "type": "address"
        },
        {
          "internalType": "bool",
          "name": "_alive",
          "type": "bool"
        }
      ],
      "name": "setAliveImplementation2",
      "outputs": [],
      "stateMutability": "nonpayable",
      "type": "function"
    },
    {
      "inputs": [
        {
          "internalType": "address",
          "name": "newImplementation",
          "type": "address"
        },
        {
          "internalType": "uint256",
          "name": "_index",
          "type": "uint256"
        },
        {
          "internalType": "bool",
          "name": "_alive",
          "type": "bool"
        }
      ],
      "name": "setImplementation2",
      "outputs": [],
      "stateMutability": "nonpayable",
      "type": "function"
    },
    {
      "inputs": [
        {
          "internalType": "bool",
          "name": "_pause",
          "type": "bool"
        }
      ],
      "name": "setProxyPause",
      "outputs": [],
      "stateMutability": "nonpayable",
      "type": "function"
    },
    {
      "inputs": [
        {
          "internalType": "bytes4[]",
          "name": "_selectors",
          "type": "bytes4[]"
        },
        {
          "internalType": "address",
          "name": "_imp",
          "type": "address"
        }
      ],
      "name": "setSelectorImplementations2",
      "outputs": [],
      "stateMutability": "nonpayable",
      "type": "function"
    },
    {
      "inputs": [
        {
          "internalType": "bytes4",
          "name": "interfaceId",
          "type": "bytes4"
        }
      ],
      "name": "supportsInterface",
      "outputs": [
        {
          "internalType": "bool",
          "name": "",
          "type": "bool"
        }
      ],
      "stateMutability": "view",
      "type": "function"
    },
    {
      "inputs": [],
      "name": "ton",
      "outputs": [
        {
          "internalType": "address",
          "name": "",
          "type": "address"
        }
      ],
      "stateMutability": "view",
      "type": "function"
    },
    {
      "inputs": [],
      "name": "tos",
      "outputs": [
        {
          "internalType": "address",
          "name": "",
          "type": "address"
        }
      ],
      "stateMutability": "view",
      "type": "function"
    },
    {
      "inputs": [
        {
          "internalType": "address",
          "name": "newAdmin",
          "type": "address"
        }
      ],
      "name": "transferAdmin",
      "outputs": [],
      "stateMutability": "nonpayable",
      "type": "function"
    },
    {
      "inputs": [],
      "name": "uniswapRouter",
      "outputs": [
        {
          "internalType": "contract ISwapRouter",
          "name": "",
          "type": "address"
        }
      ],
      "stateMutability": "view",
      "type": "function"
    },
    {
      "inputs": [
        {
          "internalType": "address",
          "name": "impl",
          "type": "address"
        }
      ],
      "name": "upgradeTo",
      "outputs": [],
      "stateMutability": "nonpayable",
      "type": "function"
    },
    {
      "inputs": [],
      "name": "wton",
      "outputs": [
        {
          "internalType": "address",
          "name": "",
          "type": "address"
        }
      ],
      "stateMutability": "view",
      "type": "function"
    },
    {
      "stateMutability": "payable",
      "type": "receive"
    }
  ],
  "bytecode": "0x608060405260016003553480156200001657600080fd5b50620000497fdf8b4c520ffe197c5343c6f5aec59570151ef9a492f2c624fd45ddde6135ec4280620000b860201b60201c565b6200007b7fdf8b4c520ffe197c5343c6f5aec59570151ef9a492f2c624fd45ddde6135ec42336200011c60201b60201c565b60007f4273ca16e32229270629d776700e1c07e4a1080fc9b26d21f6608efc2b31dc4d9050620000b1816200013260201b60201c565b5062000413565b6000620000cb836200020b60201b60201c565b90508160066000858152602001908152602001600020600101819055508181847fbd79b86ffe0ab8e8776151514217cd7cacd52c909f66475c3af44e129f0b00ff60405160405180910390a4505050565b6200012e82826200022b60201b60201c565b5050565b63ffffffff60e01b817bffffffffffffffffffffffffffffffffffffffffffffffffffffffff191614156200019e576040517f08c379a00000000000000000000000000000000000000000000000000000000081526004016200019590620003f1565b60405180910390fd5b6001600b6000837bffffffffffffffffffffffffffffffffffffffffffffffffffffffff19167bffffffffffffffffffffffffffffffffffffffffffffffffffffffff1916815260200190815260200160002060006101000a81548160ff02191690831515021790555050565b600060066000838152602001908152602001600020600101549050919050565b6200023d82826200031d60201b60201c565b620003195760016006600084815260200190815260200160002060000160008373ffffffffffffffffffffffffffffffffffffffff1673ffffffffffffffffffffffffffffffffffffffff16815260200190815260200160002060006101000a81548160ff021916908315150217905550620002be6200038860201b60201c565b73ffffffffffffffffffffffffffffffffffffffff168173ffffffffffffffffffffffffffffffffffffffff16837f2f8788117e7eff1d82e926ec794901d17c78024a50270940304540a733656f0d60405160405180910390a45b5050565b60006006600084815260200190815260200160002060000160008373ffffffffffffffffffffffffffffffffffffffff1673ffffffffffffffffffffffffffffffffffffffff16815260200190815260200160002060009054906101000a900460ff16905092915050565b600033905090565b600082825260208201905092915050565b7f4552433136353a20696e76616c696420696e7465726661636520696400000000600082015250565b6000620003d9601c8362000390565b9150620003e682620003a1565b602082019050919050565b600060208201905081810360008301526200040c81620003ca565b9050919050565b612e5380620004236000396000f3fe6080604052600436106101d15760003560e01c806375829def116100f75780638d62d94911610095578063b911135f11610064578063b911135f146106a8578063cc48b947146106e5578063d547741f14610710578063e0af361614610739576101d8565b80638d62d949146105fe57806391d14854146106295780639a202d4714610666578063a217fddf1461067d576101d8565b80637cd5f663116100d15780637cd5f6631461053057806389f395de146105595780638b8f4a65146105845780638d4fdb40146105c1576101d8565b806375829def146104b357806375b238fc146104dc5780637cb00d2514610507576101d8565b80634a5df50f1161016f5780635cc797d81161013e5780635cc797d81461040b57806363a8fd8914610434578063704802751461045f578063735de9f714610488576101d8565b80634a5df50f1461033d57806350d2a27614610366578063550d01a3146103a35780635c60da1b146103e0576101d8565b806324d7806c116101ab57806324d7806c146102855780632f2ff15d146102c257806336568abe146102eb5780633659cfe614610314576101d8565b806301ffc9a7146101e25780631459457a1461021f578063248a9ca314610248576101d8565b366101d857005b6101e0610764565b005b3480156101ee57600080fd5b506102096004803603810190610204919061201e565b610844565b6040516102169190612066565b60405180910390f35b34801561022b57600080fd5b50610246600480360381019061024191906120df565b610856565b005b34801561025457600080fd5b5061026f600480360381019061026a9190612190565b6109e9565b60405161027c91906121cc565b60405180910390f35b34801561029157600080fd5b506102ac60048036038101906102a791906121e7565b610a09565b6040516102b99190612066565b60405180910390f35b3480156102ce57600080fd5b506102e960048036038101906102e49190612214565b610a3c565b005b3480156102f757600080fd5b50610312600480360381019061030d9190612214565b610a5d565b005b34801561032057600080fd5b5061033b600480360381019061033691906121e7565b610ae0565b005b34801561034957600080fd5b50610364600480360381019061035f91906122b9565b610c63565b005b34801561037257600080fd5b5061038d6004803603810190610388919061201e565b610fec565b60405161039a9190612328565b60405180910390f35b3480156103af57600080fd5b506103ca60048036038101906103c591906121e7565b61101f565b6040516103d79190612066565b60405180910390f35b3480156103ec57600080fd5b506103f561103f565b6040516104029190612328565b60405180910390f35b34801561041757600080fd5b50610432600480360381019061042d919061236f565b611050565b005b34801561044057600080fd5b506104496110a6565b6040516104569190612066565b60405180910390f35b34801561046b57600080fd5b50610486600480360381019061048191906121e7565b6110b9565b005b34801561049457600080fd5b5061049d61112e565b6040516104aa919061240e565b60405180910390f35b3480156104bf57600080fd5b506104da60048036038101906104d591906121e7565b611154565b005b3480156104e857600080fd5b506104f16112d2565b6040516104fe91906121cc565b60405180910390f35b34801561051357600080fd5b5061052e60048036038101906105299190612429565b6112f6565b005b34801561053c57600080fd5b506105576004803603810190610552919061248c565b61135b565b005b34801561056557600080fd5b5061056e6113b3565b60405161057b9190612328565b60405180910390f35b34801561059057600080fd5b506105ab60048036038101906105a691906124df565b6113d9565b6040516105b89190612328565b60405180910390f35b3480156105cd57600080fd5b506105e860048036038101906105e3919061201e565b6113eb565b6040516105f59190612328565b60405180910390f35b34801561060a57600080fd5b50610613611645565b6040516106209190612328565b60405180910390f35b34801561063557600080fd5b50610650600480360381019061064b9190612214565b611669565b60405161065d9190612066565b60405180910390f35b34801561067257600080fd5b5061067b6116d4565b005b34801561068957600080fd5b50610692611748565b60405161069f91906121cc565b60405180910390f35b3480156106b457600080fd5b506106cf60048036038101906106ca91906124df565b61174f565b6040516106dc9190612328565b60405180910390f35b3480156106f157600080fd5b506106fa611782565b6040516107079190612328565b60405180910390f35b34801561071c57600080fd5b5061073760048036038101906107329190612214565b6117a8565b005b34801561074557600080fd5b5061074e6117c9565b60405161075b919061252d565b60405180910390f35b60006107936000357fffffffff00000000000000000000000000000000000000000000000000000000166113eb565b9050600073ffffffffffffffffffffffffffffffffffffffff168173ffffffffffffffffffffffffffffffffffffffff16141580156107df5750600760009054906101000a900460ff16155b61081e576040517f08c379a0000000000000000000000000000000000000000000000000000000008152600401610815906125a5565b60405180910390fd5b3660008037600080366000845af43d6000803e806000811461083f573d6000f35b3d6000fd5b600061084f826117ef565b9050919050565b61085f33610a09565b61089e576040517f08c379a000000000000000000000000000000000000000000000000000000000815260040161089590612637565b60405180910390fd5b846000806101000a81548173ffffffffffffffffffffffffffffffffffffffff021916908373ffffffffffffffffffffffffffffffffffffffff16021790555083600160006101000a81548173ffffffffffffffffffffffffffffffffffffffff021916908373ffffffffffffffffffffffffffffffffffffffff16021790555082600260006101000a81548173ffffffffffffffffffffffffffffffffffffffff021916908373ffffffffffffffffffffffffffffffffffffffff16021790555081600560006101000a81548173ffffffffffffffffffffffffffffffffffffffff021916908373ffffffffffffffffffffffffffffffffffffffff16021790555080600460006101000a81548173ffffffffffffffffffffffffffffffffffffffff021916908373ffffffffffffffffffffffffffffffffffffffff1602179055505050505050565b600060066000838152602001908152602001600020600101549050919050565b6000610a357fdf8b4c520ffe197c5343c6f5aec59570151ef9a492f2c624fd45ddde6135ec4283611669565b9050919050565b610a45826109e9565b610a4e81611867565b610a58838361187b565b505050565b610a6561195c565b73ffffffffffffffffffffffffffffffffffffffff168173ffffffffffffffffffffffffffffffffffffffff1614610ad2576040517f08c379a0000000000000000000000000000000000000000000000000000000008152600401610ac9906126c9565b60405180910390fd5b610adc8282611964565b5050565b610ae933610a09565b610b28576040517f08c379a0000000000000000000000000000000000000000000000000000000008152600401610b1f90612637565b60405180910390fd5b600073ffffffffffffffffffffffffffffffffffffffff168173ffffffffffffffffffffffffffffffffffffffff161415610b98576040517f08c379a0000000000000000000000000000000000000000000000000000000008152600401610b8f90612735565b60405180910390fd5b8073ffffffffffffffffffffffffffffffffffffffff16610bb96000611a46565b73ffffffffffffffffffffffffffffffffffffffff161415610c10576040517f08c379a0000000000000000000000000000000000000000000000000000000008152600401610c07906127a1565b60405180910390fd5b610c1d8160006001611a83565b8073ffffffffffffffffffffffffffffffffffffffff167fbc7cd75a20ee27fd9adebab32041f755214dbc6bffa90cc0225b39da2e5c2d3b60405160405180910390a250565b610c6c33610a09565b610cab576040517f08c379a0000000000000000000000000000000000000000000000000000000008152600401610ca290612637565b60405180910390fd5b60008383905011610cf1576040517f08c379a0000000000000000000000000000000000000000000000000000000008152600401610ce89061280d565b60405180910390fd5b600960008273ffffffffffffffffffffffffffffffffffffffff1673ffffffffffffffffffffffffffffffffffffffff16815260200190815260200160002060009054906101000a900460ff16610d7d576040517f08c379a0000000000000000000000000000000000000000000000000000000008152600401610d7490612879565b60405180910390fd5b60005b83839050811015610fe6578173ffffffffffffffffffffffffffffffffffffffff16600a6000868685818110610db957610db8612899565b5b9050602002016020810190610dce919061201e565b7bffffffffffffffffffffffffffffffffffffffffffffffffffffffff19167bffffffffffffffffffffffffffffffffffffffffffffffffffffffff1916815260200190815260200160002060009054906101000a900473ffffffffffffffffffffffffffffffffffffffff1673ffffffffffffffffffffffffffffffffffffffff161415610e92576040517f08c379a0000000000000000000000000000000000000000000000000000000008152600401610e8990612914565b60405180910390fd5b81600a6000868685818110610eaa57610ea9612899565b5b9050602002016020810190610ebf919061201e565b7bffffffffffffffffffffffffffffffffffffffffffffffffffffffff19167bffffffffffffffffffffffffffffffffffffffffffffffffffffffff1916815260200190815260200160002060006101000a81548173ffffffffffffffffffffffffffffffffffffffff021916908373ffffffffffffffffffffffffffffffffffffffff1602179055508173ffffffffffffffffffffffffffffffffffffffff16848483818110610f7357610f72612899565b5b9050602002016020810190610f88919061201e565b7bffffffffffffffffffffffffffffffffffffffffffffffffffffffff19167f14ebc1c32aa68f4d766e89f3e546cee249f7df25183fc10ab1568d91c2ce9b7b60405160405180910390a38080610fde90612963565b915050610d80565b50505050565b600a6020528060005260406000206000915054906101000a900473ffffffffffffffffffffffffffffffffffffffff1681565b60096020528060005260406000206000915054906101000a900460ff1681565b600061104b6000611a46565b905090565b61105933610a09565b611098576040517f08c379a000000000000000000000000000000000000000000000000000000000815260040161108f90612637565b60405180910390fd5b6110a28282611b33565b5050565b600760009054906101000a900460ff1681565b6110c233610a09565b611101576040517f08c379a00000000000000000000000000000000000000000000000000000000081526004016110f890612637565b60405180910390fd5b61112b7fdf8b4c520ffe197c5343c6f5aec59570151ef9a492f2c624fd45ddde6135ec4282610a3c565b50565b600560009054906101000a900473ffffffffffffffffffffffffffffffffffffffff1681565b61115d33610a09565b61119c576040517f08c379a000000000000000000000000000000000000000000000000000000000815260040161119390612637565b60405180910390fd5b600073ffffffffffffffffffffffffffffffffffffffff168173ffffffffffffffffffffffffffffffffffffffff16141561120c576040517f08c379a0000000000000000000000000000000000000000000000000000000008152600401611203906129f8565b60405180910390fd5b8073ffffffffffffffffffffffffffffffffffffffff163373ffffffffffffffffffffffffffffffffffffffff16141561127b576040517f08c379a000000000000000000000000000000000000000000000000000000000815260040161127290612a64565b60405180910390fd5b6112a57fdf8b4c520ffe197c5343c6f5aec59570151ef9a492f2c624fd45ddde6135ec4282610a3c565b6112cf7fdf8b4c520ffe197c5343c6f5aec59570151ef9a492f2c624fd45ddde6135ec4233610a5d565b50565b7fdf8b4c520ffe197c5343c6f5aec59570151ef9a492f2c624fd45ddde6135ec4281565b6112ff33610a09565b61133e576040517f08c379a000000000000000000000000000000000000000000000000000000000815260040161133590612637565b60405180910390fd5b80600760006101000a81548160ff02191690831515021790555050565b61136433610a09565b6113a3576040517f08c379a000000000000000000000000000000000000000000000000000000000815260040161139a90612637565b60405180910390fd5b6113ae838383611a83565b505050565b600260009054906101000a900473ffffffffffffffffffffffffffffffffffffffff1681565b60006113e482611a46565b9050919050565b60008073ffffffffffffffffffffffffffffffffffffffff16600a6000847bffffffffffffffffffffffffffffffffffffffffffffffffffffffff19167bffffffffffffffffffffffffffffffffffffffffffffffffffffffff1916815260200190815260200160002060009054906101000a900473ffffffffffffffffffffffffffffffffffffffff1673ffffffffffffffffffffffffffffffffffffffff1614156114cd576008600080815260200190815260200160002060009054906101000a900473ffffffffffffffffffffffffffffffffffffffff169050611640565b60096000600a6000857bffffffffffffffffffffffffffffffffffffffffffffffffffffffff19167bffffffffffffffffffffffffffffffffffffffffffffffffffffffff1916815260200190815260200160002060009054906101000a900473ffffffffffffffffffffffffffffffffffffffff1673ffffffffffffffffffffffffffffffffffffffff1673ffffffffffffffffffffffffffffffffffffffff16815260200190815260200160002060009054906101000a900460ff161561160957600a6000837bffffffffffffffffffffffffffffffffffffffffffffffffffffffff19167bffffffffffffffffffffffffffffffffffffffffffffffffffffffff1916815260200190815260200160002060009054906101000a900473ffffffffffffffffffffffffffffffffffffffff169050611640565b6008600080815260200190815260200160002060009054906101000a900473ffffffffffffffffffffffffffffffffffffffff1690505b919050565b60008054906101000a900473ffffffffffffffffffffffffffffffffffffffff1681565b60006006600084815260200190815260200160002060000160008373ffffffffffffffffffffffffffffffffffffffff1673ffffffffffffffffffffffffffffffffffffffff16815260200190815260200160002060009054906101000a900460ff16905092915050565b6116dd33610a09565b61171c576040517f08c379a000000000000000000000000000000000000000000000000000000000815260040161171390612637565b60405180910390fd5b6117467fdf8b4c520ffe197c5343c6f5aec59570151ef9a492f2c624fd45ddde6135ec4233610a5d565b565b6000801b81565b60086020528060005260406000206000915054906101000a900473ffffffffffffffffffffffffffffffffffffffff1681565b600160009054906101000a900473ffffffffffffffffffffffffffffffffffffffff1681565b6117b1826109e9565b6117ba81611867565b6117c48383611964565b505050565b600460009054906101000a900473ffffffffffffffffffffffffffffffffffffffff1681565b60006117fa82611bdc565b806118605750600b6000837bffffffffffffffffffffffffffffffffffffffffffffffffffffffff19167bffffffffffffffffffffffffffffffffffffffffffffffffffffffff1916815260200190815260200160002060009054906101000a900460ff165b9050919050565b6118788161187361195c565b611c56565b50565b6118858282611669565b6119585760016006600084815260200190815260200160002060000160008373ffffffffffffffffffffffffffffffffffffffff1673ffffffffffffffffffffffffffffffffffffffff16815260200190815260200160002060006101000a81548160ff0219169083151502179055506118fd61195c565b73ffffffffffffffffffffffffffffffffffffffff168173ffffffffffffffffffffffffffffffffffffffff16837f2f8788117e7eff1d82e926ec794901d17c78024a50270940304540a733656f0d60405160405180910390a45b5050565b600033905090565b61196e8282611669565b15611a425760006006600084815260200190815260200160002060000160008373ffffffffffffffffffffffffffffffffffffffff1673ffffffffffffffffffffffffffffffffffffffff16815260200190815260200160002060006101000a81548160ff0219169083151502179055506119e761195c565b73ffffffffffffffffffffffffffffffffffffffff168173ffffffffffffffffffffffffffffffffffffffff16837ff6391f5c32d9c69d2a47ea670b442974b53935d1edc7fd64eb21e047a839171b60405160405180910390a45b5050565b60006008600083815260200190815260200160002060009054906101000a900473ffffffffffffffffffffffffffffffffffffffff169050919050565b611a8c83611cf3565b611acb576040517f08c379a0000000000000000000000000000000000000000000000000000000008152600401611ac290612ad0565b60405180910390fd5b8015611b2457826008600084815260200190815260200160002060006101000a81548173ffffffffffffffffffffffffffffffffffffffff021916908373ffffffffffffffffffffffffffffffffffffffff1602179055505b611b2e8382611b33565b505050565b80600960008473ffffffffffffffffffffffffffffffffffffffff1673ffffffffffffffffffffffffffffffffffffffff16815260200190815260200160002060006101000a81548160ff0219169083151502179055508173ffffffffffffffffffffffffffffffffffffffff167f72558d9bfba4210f9ef095c782589484151f6d90f7a81bb3cb9b33efc695d32482604051611bd09190612066565b60405180910390a25050565b60007f7965db0b000000000000000000000000000000000000000000000000000000007bffffffffffffffffffffffffffffffffffffffffffffffffffffffff1916827bffffffffffffffffffffffffffffffffffffffffffffffffffffffff19161480611c4f5750611c4e82611d16565b5b9050919050565b611c608282611669565b611cef57611c858173ffffffffffffffffffffffffffffffffffffffff166014611d80565b611c938360001c6020611d80565b604051602001611ca4929190612c02565b6040516020818303038152906040526040517f08c379a0000000000000000000000000000000000000000000000000000000008152600401611ce69190612c86565b60405180910390fd5b5050565b6000808273ffffffffffffffffffffffffffffffffffffffff163b119050919050565b60007f01ffc9a7000000000000000000000000000000000000000000000000000000007bffffffffffffffffffffffffffffffffffffffffffffffffffffffff1916827bffffffffffffffffffffffffffffffffffffffffffffffffffffffff1916149050919050565b606060006002836002611d939190612ca8565b611d9d9190612d02565b67ffffffffffffffff811115611db657611db5612d58565b5b6040519080825280601f01601f191660200182016040528015611de85781602001600182028036833780820191505090505b5090507f300000000000000000000000000000000000000000000000000000000000000081600081518110611e2057611e1f612899565b5b60200101907effffffffffffffffffffffffffffffffffffffffffffffffffffffffffffff1916908160001a9053507f780000000000000000000000000000000000000000000000000000000000000081600181518110611e8457611e83612899565b5b60200101907effffffffffffffffffffffffffffffffffffffffffffffffffffffffffffff1916908160001a90535060006001846002611ec49190612ca8565b611ece9190612d02565b90505b6001811115611f6e577f3031323334353637383961626364656600000000000000000000000000000000600f861660108110611f1057611f0f612899565b5b1a60f81b828281518110611f2757611f26612899565b5b60200101907effffffffffffffffffffffffffffffffffffffffffffffffffffffffffffff1916908160001a905350600485901c945080611f6790612d87565b9050611ed1565b5060008414611fb2576040517f08c379a0000000000000000000000000000000000000000000000000000000008152600401611fa990612dfd565b60405180910390fd5b8091505092915050565b600080fd5b600080fd5b60007fffffffff0000000000000000000000000000000000000000000000000000000082169050919050565b611ffb81611fc6565b811461200657600080fd5b50565b60008135905061201881611ff2565b92915050565b60006020828403121561203457612033611fbc565b5b600061204284828501612009565b91505092915050565b60008115159050919050565b6120608161204b565b82525050565b600060208201905061207b6000830184612057565b92915050565b600073ffffffffffffffffffffffffffffffffffffffff82169050919050565b60006120ac82612081565b9050919050565b6120bc816120a1565b81146120c757600080fd5b50565b6000813590506120d9816120b3565b92915050565b600080600080600060a086880312156120fb576120fa611fbc565b5b6000612109888289016120ca565b955050602061211a888289016120ca565b945050604061212b888289016120ca565b935050606061213c888289016120ca565b925050608061214d888289016120ca565b9150509295509295909350565b6000819050919050565b61216d8161215a565b811461217857600080fd5b50565b60008135905061218a81612164565b92915050565b6000602082840312156121a6576121a5611fbc565b5b60006121b48482850161217b565b91505092915050565b6121c68161215a565b82525050565b60006020820190506121e160008301846121bd565b92915050565b6000602082840312156121fd576121fc611fbc565b5b600061220b848285016120ca565b91505092915050565b6000806040838503121561222b5761222a611fbc565b5b60006122398582860161217b565b925050602061224a858286016120ca565b9150509250929050565b600080fd5b600080fd5b600080fd5b60008083601f84011261227957612278612254565b5b8235905067ffffffffffffffff81111561229657612295612259565b5b6020830191508360208202830111156122b2576122b161225e565b5b9250929050565b6000806000604084860312156122d2576122d1611fbc565b5b600084013567ffffffffffffffff8111156122f0576122ef611fc1565b5b6122fc86828701612263565b9350935050602061230f868287016120ca565b9150509250925092565b612322816120a1565b82525050565b600060208201905061233d6000830184612319565b92915050565b61234c8161204b565b811461235757600080fd5b50565b60008135905061236981612343565b92915050565b6000806040838503121561238657612385611fbc565b5b6000612394858286016120ca565b92505060206123a58582860161235a565b9150509250929050565b6000819050919050565b60006123d46123cf6123ca84612081565b6123af565b612081565b9050919050565b60006123e6826123b9565b9050919050565b60006123f8826123db565b9050919050565b612408816123ed565b82525050565b600060208201905061242360008301846123ff565b92915050565b60006020828403121561243f5761243e611fbc565b5b600061244d8482850161235a565b91505092915050565b6000819050919050565b61246981612456565b811461247457600080fd5b50565b60008135905061248681612460565b92915050565b6000806000606084860312156124a5576124a4611fbc565b5b60006124b3868287016120ca565b93505060206124c486828701612477565b92505060406124d58682870161235a565b9150509250925092565b6000602082840312156124f5576124f4611fbc565b5b600061250384828501612477565b91505092915050565b6000612517826123db565b9050919050565b6125278161250c565b82525050565b6000602082019050612542600083018461251e565b92915050565b600082825260208201905092915050565b7f50726f78793a20696d706c204f522070726f78792069732066616c7365000000600082015250565b600061258f601d83612548565b915061259a82612559565b602082019050919050565b600060208201905081810360008301526125be81612582565b9050919050565b7f41636365737369626c653a2043616c6c6572206973206e6f7420616e2061646d60008201527f696e000000000000000000000000000000000000000000000000000000000000602082015250565b6000612621602283612548565b915061262c826125c5565b604082019050919050565b6000602082019050818103600083015261265081612614565b9050919050565b7f416363657373436f6e74726f6c3a2063616e206f6e6c792072656e6f756e636560008201527f20726f6c657320666f722073656c660000000000000000000000000000000000602082015250565b60006126b3602f83612548565b91506126be82612657565b604082019050919050565b600060208201905081810360008301526126e2816126a6565b9050919050565b7f696e707574206973207a65726f00000000000000000000000000000000000000600082015250565b600061271f600d83612548565b915061272a826126e9565b602082019050919050565b6000602082019050818103600083015261274e81612712565b9050919050565b7f73616d6520616464720000000000000000000000000000000000000000000000600082015250565b600061278b600983612548565b915061279682612755565b602082019050919050565b600060208201905081810360008301526127ba8161277e565b9050919050565b7f50726f78793a205f73656c6563746f727327732073697a65206973207a65726f600082015250565b60006127f7602083612548565b9150612802826127c1565b602082019050919050565b60006020820190508181036000830152612826816127ea565b9050919050565b7f50726f78793a205f696d70206973206e6f7420616c6976650000000000000000600082015250565b6000612863601883612548565b915061286e8261282d565b602082019050919050565b6000602082019050818103600083015261289281612856565b9050919050565b7f4e487b7100000000000000000000000000000000000000000000000000000000600052603260045260246000fd5b7f4c69717569646974795661756c7450726f78793a2073616d6520696d70000000600082015250565b60006128fe601d83612548565b9150612909826128c8565b602082019050919050565b6000602082019050818103600083015261292d816128f1565b9050919050565b7f4e487b7100000000000000000000000000000000000000000000000000000000600052601160045260246000fd5b600061296e82612456565b91507fffffffffffffffffffffffffffffffffffffffffffffffffffffffffffffffff8214156129a1576129a0612934565b5b600182019050919050565b7f41636365737369626c653a207a65726f20616464726573730000000000000000600082015250565b60006129e2601883612548565b91506129ed826129ac565b602082019050919050565b60006020820190508181036000830152612a11816129d5565b9050919050565b7f41636365737369626c653a2073616d652061646d696e00000000000000000000600082015250565b6000612a4e601683612548565b9150612a5982612a18565b602082019050919050565b60006020820190508181036000830152612a7d81612a41565b9050919050565b7f50726f78793a206e6f7420636f6e747261637420616464726573730000000000600082015250565b6000612aba601b83612548565b9150612ac582612a84565b602082019050919050565b60006020820190508181036000830152612ae981612aad565b9050919050565b600081905092915050565b7f416363657373436f6e74726f6c3a206163636f756e7420000000000000000000600082015250565b6000612b31601783612af0565b9150612b3c82612afb565b601782019050919050565b600081519050919050565b60005b83811015612b70578082015181840152602081019050612b55565b83811115612b7f576000848401525b50505050565b6000612b9082612b47565b612b9a8185612af0565b9350612baa818560208601612b52565b80840191505092915050565b7f206973206d697373696e6720726f6c6520000000000000000000000000000000600082015250565b6000612bec601183612af0565b9150612bf782612bb6565b601182019050919050565b6000612c0d82612b24565b9150612c198285612b85565b9150612c2482612bdf565b9150612c308284612b85565b91508190509392505050565b6000601f19601f8301169050919050565b6000612c5882612b47565b612c628185612548565b9350612c72818560208601612b52565b612c7b81612c3c565b840191505092915050565b60006020820190508181036000830152612ca08184612c4d565b905092915050565b6000612cb382612456565b9150612cbe83612456565b9250817fffffffffffffffffffffffffffffffffffffffffffffffffffffffffffffffff0483118215151615612cf757612cf6612934565b5b828202905092915050565b6000612d0d82612456565b9150612d1883612456565b9250827fffffffffffffffffffffffffffffffffffffffffffffffffffffffffffffffff03821115612d4d57612d4c612934565b5b828201905092915050565b7f4e487b7100000000000000000000000000000000000000000000000000000000600052604160045260246000fd5b6000612d9282612456565b91506000821415612da657612da5612934565b5b600182039050919050565b7f537472696e67733a20686578206c656e67746820696e73756666696369656e74600082015250565b6000612de7602083612548565b9150612df282612db1565b602082019050919050565b60006020820190508181036000830152612e1681612dda565b905091905056fea26469706673582212205eac3763de5c9a71df948e97284b31de995da79e127265ad4d2d0ecfeb5dabac64736f6c634300080c0033",
  "linkReferences": {},
  "deployedLinkReferences": {}
}