{
  "_format": "hh-sol-artifact-1",
  "contractName": "SwapperProxy",
  "sourceName": "contracts/SwapperProxy.sol",
  "abi": [
    {
      "inputs": [],
      "stateMutability": "nonpayable",
      "type": "constructor"
    },
    {
      "anonymous": false,
      "inputs": [
        {
          "indexed": true,
          "internalType": "bytes32",
          "name": "role",
          "type": "bytes32"
        },
        {
          "indexed": true,
          "internalType": "bytes32",
          "name": "previousAdminRole",
          "type": "bytes32"
        },
        {
          "indexed": true,
          "internalType": "bytes32",
          "name": "newAdminRole",
          "type": "bytes32"
        }
      ],
      "name": "RoleAdminChanged",
      "type": "event"
    },
    {
      "anonymous": false,
      "inputs": [
        {
          "indexed": true,
          "internalType": "bytes32",
          "name": "role",
          "type": "bytes32"
        },
        {
          "indexed": true,
          "internalType": "address",
          "name": "account",
          "type": "address"
        },
        {
          "indexed": true,
          "internalType": "address",
          "name": "sender",
          "type": "address"
        }
      ],
      "name": "RoleGranted",
      "type": "event"
    },
    {
      "anonymous": false,
      "inputs": [
        {
          "indexed": true,
          "internalType": "bytes32",
          "name": "role",
          "type": "bytes32"
        },
        {
          "indexed": true,
          "internalType": "address",
          "name": "account",
          "type": "address"
        },
        {
          "indexed": true,
          "internalType": "address",
          "name": "sender",
          "type": "address"
        }
      ],
      "name": "RoleRevoked",
      "type": "event"
    },
    {
      "anonymous": false,
      "inputs": [
        {
          "indexed": true,
          "internalType": "address",
          "name": "impl",
          "type": "address"
        },
        {
          "indexed": false,
          "internalType": "bool",
          "name": "alive",
          "type": "bool"
        }
      ],
      "name": "SetAliveImplementation",
      "type": "event"
    },
    {
      "anonymous": false,
      "inputs": [
        {
          "indexed": true,
          "internalType": "bytes4",
          "name": "selector",
          "type": "bytes4"
        },
        {
          "indexed": true,
          "internalType": "address",
          "name": "impl",
          "type": "address"
        }
      ],
      "name": "SetSelectorImplementation",
      "type": "event"
    },
    {
      "anonymous": false,
      "inputs": [
        {
          "indexed": true,
          "internalType": "address",
          "name": "implementation",
          "type": "address"
        }
      ],
      "name": "Upgraded",
      "type": "event"
    },
    {
      "stateMutability": "payable",
      "type": "fallback"
    },
    {
      "inputs": [],
      "name": "ADMIN_ROLE",
      "outputs": [
        {
          "internalType": "bytes32",
          "name": "",
          "type": "bytes32"
        }
      ],
      "stateMutability": "view",
      "type": "function"
    },
    {
      "inputs": [],
      "name": "DEFAULT_ADMIN_ROLE",
      "outputs": [
        {
          "internalType": "bytes32",
          "name": "",
          "type": "bytes32"
        }
      ],
      "stateMutability": "view",
      "type": "function"
    },
    {
      "inputs": [],
      "name": "_WETH",
      "outputs": [
        {
          "internalType": "contract IWETH",
          "name": "",
          "type": "address"
        }
      ],
      "stateMutability": "view",
      "type": "function"
    },
    {
      "inputs": [
        {
          "internalType": "address",
          "name": "account",
          "type": "address"
        }
      ],
      "name": "addAdmin",
      "outputs": [],
      "stateMutability": "nonpayable",
      "type": "function"
    },
    {
      "inputs": [
        {
          "internalType": "address",
          "name": "",
          "type": "address"
        }
      ],
      "name": "aliveImplementation",
      "outputs": [
        {
          "internalType": "bool",
          "name": "",
          "type": "bool"
        }
      ],
      "stateMutability": "view",
      "type": "function"
    },
    {
      "inputs": [
        {
          "internalType": "bytes32",
          "name": "role",
          "type": "bytes32"
        }
      ],
      "name": "getRoleAdmin",
      "outputs": [
        {
          "internalType": "bytes32",
          "name": "",
          "type": "bytes32"
        }
      ],
      "stateMutability": "view",
      "type": "function"
    },
    {
      "inputs": [
        {
          "internalType": "bytes4",
          "name": "_selector",
          "type": "bytes4"
        }
      ],
      "name": "getSelectorImplementation2",
      "outputs": [
        {
          "internalType": "address",
          "name": "impl",
          "type": "address"
        }
      ],
      "stateMutability": "view",
      "type": "function"
    },
    {
      "inputs": [
        {
          "internalType": "bytes32",
          "name": "role",
          "type": "bytes32"
        },
        {
          "internalType": "address",
          "name": "account",
          "type": "address"
        }
      ],
      "name": "grantRole",
      "outputs": [],
      "stateMutability": "nonpayable",
      "type": "function"
    },
    {
      "inputs": [
        {
          "internalType": "bytes32",
          "name": "role",
          "type": "bytes32"
        },
        {
          "internalType": "address",
          "name": "account",
          "type": "address"
        }
      ],
      "name": "hasRole",
      "outputs": [
        {
          "internalType": "bool",
          "name": "",
          "type": "bool"
        }
      ],
      "stateMutability": "view",
      "type": "function"
    },
    {
      "inputs": [],
      "name": "implementation",
      "outputs": [
        {
          "internalType": "address",
          "name": "",
          "type": "address"
        }
      ],
      "stateMutability": "view",
      "type": "function"
    },
    {
      "inputs": [
        {
          "internalType": "uint256",
          "name": "_index",
          "type": "uint256"
        }
      ],
      "name": "implementation2",
      "outputs": [
        {
          "internalType": "address",
          "name": "",
          "type": "address"
        }
      ],
      "stateMutability": "view",
      "type": "function"
    },
    {
      "inputs": [
        {
          "internalType": "address",
          "name": "_wton",
          "type": "address"
        },
        {
          "internalType": "address",
          "name": "_ton",
          "type": "address"
        },
        {
          "internalType": "address",
          "name": "_tos",
          "type": "address"
        },
        {
          "internalType": "address",
          "name": "_uniswapRouter",
          "type": "address"
        },
        {
          "internalType": "address",
          "name": "_weth",
          "type": "address"
        }
      ],
      "name": "initialize",
      "outputs": [],
      "stateMutability": "nonpayable",
      "type": "function"
    },
    {
      "inputs": [
        {
          "internalType": "address",
          "name": "account",
          "type": "address"
        }
      ],
      "name": "isAdmin",
      "outputs": [
        {
          "internalType": "bool",
          "name": "",
          "type": "bool"
        }
      ],
      "stateMutability": "view",
      "type": "function"
    },
    {
      "inputs": [],
      "name": "pauseProxy",
      "outputs": [
        {
          "internalType": "bool",
          "name": "",
          "type": "bool"
        }
      ],
      "stateMutability": "view",
      "type": "function"
    },
    {
      "inputs": [
        {
          "internalType": "uint256",
          "name": "",
          "type": "uint256"
        }
      ],
      "name": "proxyImplementation",
      "outputs": [
        {
          "internalType": "address",
          "name": "",
          "type": "address"
        }
      ],
      "stateMutability": "view",
      "type": "function"
    },
    {
      "inputs": [],
      "name": "removeAdmin",
      "outputs": [],
      "stateMutability": "nonpayable",
      "type": "function"
    },
    {
      "inputs": [
        {
          "internalType": "bytes32",
          "name": "role",
          "type": "bytes32"
        },
        {
          "internalType": "address",
          "name": "account",
          "type": "address"
        }
      ],
      "name": "renounceRole",
      "outputs": [],
      "stateMutability": "nonpayable",
      "type": "function"
    },
    {
      "inputs": [
        {
          "internalType": "bytes32",
          "name": "role",
          "type": "bytes32"
        },
        {
          "internalType": "address",
          "name": "account",
          "type": "address"
        }
      ],
      "name": "revokeRole",
      "outputs": [],
      "stateMutability": "nonpayable",
      "type": "function"
    },
    {
      "inputs": [
        {
          "internalType": "bytes4",
          "name": "",
          "type": "bytes4"
        }
      ],
      "name": "selectorImplementation",
      "outputs": [
        {
          "internalType": "address",
          "name": "",
          "type": "address"
        }
      ],
      "stateMutability": "view",
      "type": "function"
    },
    {
      "inputs": [
        {
          "internalType": "address",
          "name": "newImplementation",
          "type": "address"
        },
        {
          "internalType": "bool",
          "name": "_alive",
          "type": "bool"
        }
      ],
      "name": "setAliveImplementation2",
      "outputs": [],
      "stateMutability": "nonpayable",
      "type": "function"
    },
    {
      "inputs": [
        {
          "internalType": "address",
          "name": "newImplementation",
          "type": "address"
        },
        {
          "internalType": "uint256",
          "name": "_index",
          "type": "uint256"
        },
        {
          "internalType": "bool",
          "name": "_alive",
          "type": "bool"
        }
      ],
      "name": "setImplementation2",
      "outputs": [],
      "stateMutability": "nonpayable",
      "type": "function"
    },
    {
      "inputs": [
        {
          "internalType": "bool",
          "name": "_pause",
          "type": "bool"
        }
      ],
      "name": "setProxyPause",
      "outputs": [],
      "stateMutability": "nonpayable",
      "type": "function"
    },
    {
      "inputs": [
        {
          "internalType": "bytes4[]",
          "name": "_selectors",
          "type": "bytes4[]"
        },
        {
          "internalType": "address",
          "name": "_imp",
          "type": "address"
        }
      ],
      "name": "setSelectorImplementations2",
      "outputs": [],
      "stateMutability": "nonpayable",
      "type": "function"
    },
    {
      "inputs": [
        {
          "internalType": "bytes4",
          "name": "interfaceId",
          "type": "bytes4"
        }
      ],
      "name": "supportsInterface",
      "outputs": [
        {
          "internalType": "bool",
          "name": "",
          "type": "bool"
        }
      ],
      "stateMutability": "view",
      "type": "function"
    },
    {
      "inputs": [],
      "name": "ton",
      "outputs": [
        {
          "internalType": "address",
          "name": "",
          "type": "address"
        }
      ],
      "stateMutability": "view",
      "type": "function"
    },
    {
      "inputs": [],
      "name": "tos",
      "outputs": [
        {
          "internalType": "address",
          "name": "",
          "type": "address"
        }
      ],
      "stateMutability": "view",
      "type": "function"
    },
    {
      "inputs": [
        {
          "internalType": "address",
          "name": "newAdmin",
          "type": "address"
        }
      ],
      "name": "transferAdmin",
      "outputs": [],
      "stateMutability": "nonpayable",
      "type": "function"
    },
    {
      "inputs": [],
      "name": "uniswapRouter",
      "outputs": [
        {
          "internalType": "contract ISwapRouter",
          "name": "",
          "type": "address"
        }
      ],
      "stateMutability": "view",
      "type": "function"
    },
    {
      "inputs": [
        {
          "internalType": "address",
          "name": "impl",
          "type": "address"
        }
      ],
      "name": "upgradeTo",
      "outputs": [],
      "stateMutability": "nonpayable",
      "type": "function"
    },
    {
      "inputs": [],
      "name": "wton",
      "outputs": [
        {
          "internalType": "address",
          "name": "",
          "type": "address"
        }
      ],
      "stateMutability": "view",
      "type": "function"
    },
    {
      "stateMutability": "payable",
      "type": "receive"
    }
  ],
  "bytecode": "0x60806040523480156200001157600080fd5b50620000447fdf8b4c520ffe197c5343c6f5aec59570151ef9a492f2c624fd45ddde6135ec4280620000b360201b60201c565b620000767fdf8b4c520ffe197c5343c6f5aec59570151ef9a492f2c624fd45ddde6135ec42336200011760201b60201c565b60007f4273ca16e32229270629d776700e1c07e4a1080fc9b26d21f6608efc2b31dc4d9050620000ac816200012d60201b60201c565b506200040e565b6000620000c6836200020660201b60201c565b90508160056000858152602001908152602001600020600101819055508181847fbd79b86ffe0ab8e8776151514217cd7cacd52c909f66475c3af44e129f0b00ff60405160405180910390a4505050565b6200012982826200022660201b60201c565b5050565b63ffffffff60e01b817bffffffffffffffffffffffffffffffffffffffffffffffffffffffff1916141562000199576040517f08c379a00000000000000000000000000000000000000000000000000000000081526004016200019090620003ec565b60405180910390fd5b6001600a6000837bffffffffffffffffffffffffffffffffffffffffffffffffffffffff19167bffffffffffffffffffffffffffffffffffffffffffffffffffffffff1916815260200190815260200160002060006101000a81548160ff02191690831515021790555050565b600060056000838152602001908152602001600020600101549050919050565b6200023882826200031860201b60201c565b620003145760016005600084815260200190815260200160002060000160008373ffffffffffffffffffffffffffffffffffffffff1673ffffffffffffffffffffffffffffffffffffffff16815260200190815260200160002060006101000a81548160ff021916908315150217905550620002b96200038360201b60201c565b73ffffffffffffffffffffffffffffffffffffffff168173ffffffffffffffffffffffffffffffffffffffff16837f2f8788117e7eff1d82e926ec794901d17c78024a50270940304540a733656f0d60405160405180910390a45b5050565b60006005600084815260200190815260200160002060000160008373ffffffffffffffffffffffffffffffffffffffff1673ffffffffffffffffffffffffffffffffffffffff16815260200190815260200160002060009054906101000a900460ff16905092915050565b600033905090565b600082825260208201905092915050565b7f4552433136353a20696e76616c696420696e7465726661636520696400000000600082015250565b6000620003d4601c836200038b565b9150620003e1826200039c565b602082019050919050565b600060208201905081810360008301526200040781620003c5565b9050919050565b612ef8806200041e6000396000f3fe6080604052600436106101d15760003560e01c806375829def116100f75780638d62d94911610095578063b911135f11610064578063b911135f146106e1578063cc48b9471461071e578063d547741f14610749578063e0af36161461077257610211565b80638d62d9491461063757806391d14854146106625780639a202d471461069f578063a217fddf146106b657610211565b80637cd5f663116100d15780637cd5f6631461056957806389f395de146105925780638b8f4a65146105bd5780638d4fdb40146105fa57610211565b806375829def146104ec57806375b238fc146105155780637cb00d251461054057610211565b80634a5df50f1161016f5780635cc797d81161013e5780635cc797d81461044457806363a8fd891461046d5780637048027514610498578063735de9f7146104c157610211565b80634a5df50f1461037657806350d2a2761461039f578063550d01a3146103dc5780635c60da1b1461041957610211565b806324d7806c116101ab57806324d7806c146102be5780632f2ff15d146102fb57806336568abe146103245780633659cfe61461034d57610211565b806301ffc9a71461021b5780631459457a14610258578063248a9ca31461028157610211565b36610211576040517f08c379a000000000000000000000000000000000000000000000000000000000815260040161020890612052565b60405180910390fd5b61021961079d565b005b34801561022757600080fd5b50610242600480360381019061023d91906120d4565b61087d565b60405161024f919061211c565b60405180910390f35b34801561026457600080fd5b5061027f600480360381019061027a9190612195565b61088f565b005b34801561028d57600080fd5b506102a860048036038101906102a39190612246565b610a22565b6040516102b59190612282565b60405180910390f35b3480156102ca57600080fd5b506102e560048036038101906102e0919061229d565b610a42565b6040516102f2919061211c565b60405180910390f35b34801561030757600080fd5b50610322600480360381019061031d91906122ca565b610a75565b005b34801561033057600080fd5b5061034b600480360381019061034691906122ca565b610a96565b005b34801561035957600080fd5b50610374600480360381019061036f919061229d565b610b19565b005b34801561038257600080fd5b5061039d6004803603810190610398919061236f565b610c9c565b005b3480156103ab57600080fd5b506103c660048036038101906103c191906120d4565b611025565b6040516103d391906123de565b60405180910390f35b3480156103e857600080fd5b5061040360048036038101906103fe919061229d565b611058565b604051610410919061211c565b60405180910390f35b34801561042557600080fd5b5061042e611078565b60405161043b91906123de565b60405180910390f35b34801561045057600080fd5b5061046b60048036038101906104669190612425565b611089565b005b34801561047957600080fd5b506104826110df565b60405161048f919061211c565b60405180910390f35b3480156104a457600080fd5b506104bf60048036038101906104ba919061229d565b6110f2565b005b3480156104cd57600080fd5b506104d6611167565b6040516104e391906124c4565b60405180910390f35b3480156104f857600080fd5b50610513600480360381019061050e919061229d565b61118d565b005b34801561052157600080fd5b5061052a61130b565b6040516105379190612282565b60405180910390f35b34801561054c57600080fd5b50610567600480360381019061056291906124df565b61132f565b005b34801561057557600080fd5b50610590600480360381019061058b9190612542565b611394565b005b34801561059e57600080fd5b506105a76113ec565b6040516105b491906123de565b60405180910390f35b3480156105c957600080fd5b506105e460048036038101906105df9190612595565b611412565b6040516105f191906123de565b60405180910390f35b34801561060657600080fd5b50610621600480360381019061061c91906120d4565b611424565b60405161062e91906123de565b60405180910390f35b34801561064357600080fd5b5061064c61167e565b60405161065991906123de565b60405180910390f35b34801561066e57600080fd5b50610689600480360381019061068491906122ca565b6116a2565b604051610696919061211c565b60405180910390f35b3480156106ab57600080fd5b506106b461170d565b005b3480156106c257600080fd5b506106cb611781565b6040516106d89190612282565b60405180910390f35b3480156106ed57600080fd5b5061070860048036038101906107039190612595565b611788565b60405161071591906123de565b60405180910390f35b34801561072a57600080fd5b506107336117bb565b60405161074091906123de565b60405180910390f35b34801561075557600080fd5b50610770600480360381019061076b91906122ca565b6117e1565b005b34801561077e57600080fd5b50610787611802565b60405161079491906125e3565b60405180910390f35b60006107cc6000357fffffffff0000000000000000000000000000000000000000000000000000000016611424565b9050600073ffffffffffffffffffffffffffffffffffffffff168173ffffffffffffffffffffffffffffffffffffffff16141580156108185750600660009054906101000a900460ff16155b610857576040517f08c379a000000000000000000000000000000000000000000000000000000000815260040161084e9061264a565b60405180910390fd5b3660008037600080366000845af43d6000803e8060008114610878573d6000f35b3d6000fd5b600061088882611828565b9050919050565b61089833610a42565b6108d7576040517f08c379a00000000000000000000000000000000000000000000000000000000081526004016108ce906126dc565b60405180910390fd5b846000806101000a81548173ffffffffffffffffffffffffffffffffffffffff021916908373ffffffffffffffffffffffffffffffffffffffff16021790555083600160006101000a81548173ffffffffffffffffffffffffffffffffffffffff021916908373ffffffffffffffffffffffffffffffffffffffff16021790555082600260006101000a81548173ffffffffffffffffffffffffffffffffffffffff021916908373ffffffffffffffffffffffffffffffffffffffff16021790555081600460006101000a81548173ffffffffffffffffffffffffffffffffffffffff021916908373ffffffffffffffffffffffffffffffffffffffff16021790555080600360006101000a81548173ffffffffffffffffffffffffffffffffffffffff021916908373ffffffffffffffffffffffffffffffffffffffff1602179055505050505050565b600060056000838152602001908152602001600020600101549050919050565b6000610a6e7fdf8b4c520ffe197c5343c6f5aec59570151ef9a492f2c624fd45ddde6135ec42836116a2565b9050919050565b610a7e82610a22565b610a87816118a0565b610a9183836118b4565b505050565b610a9e611995565b73ffffffffffffffffffffffffffffffffffffffff168173ffffffffffffffffffffffffffffffffffffffff1614610b0b576040517f08c379a0000000000000000000000000000000000000000000000000000000008152600401610b029061276e565b60405180910390fd5b610b15828261199d565b5050565b610b2233610a42565b610b61576040517f08c379a0000000000000000000000000000000000000000000000000000000008152600401610b58906126dc565b60405180910390fd5b600073ffffffffffffffffffffffffffffffffffffffff168173ffffffffffffffffffffffffffffffffffffffff161415610bd1576040517f08c379a0000000000000000000000000000000000000000000000000000000008152600401610bc8906127da565b60405180910390fd5b8073ffffffffffffffffffffffffffffffffffffffff16610bf26000611a7f565b73ffffffffffffffffffffffffffffffffffffffff161415610c49576040517f08c379a0000000000000000000000000000000000000000000000000000000008152600401610c4090612846565b60405180910390fd5b610c568160006001611abc565b8073ffffffffffffffffffffffffffffffffffffffff167fbc7cd75a20ee27fd9adebab32041f755214dbc6bffa90cc0225b39da2e5c2d3b60405160405180910390a250565b610ca533610a42565b610ce4576040517f08c379a0000000000000000000000000000000000000000000000000000000008152600401610cdb906126dc565b60405180910390fd5b60008383905011610d2a576040517f08c379a0000000000000000000000000000000000000000000000000000000008152600401610d21906128b2565b60405180910390fd5b600860008273ffffffffffffffffffffffffffffffffffffffff1673ffffffffffffffffffffffffffffffffffffffff16815260200190815260200160002060009054906101000a900460ff16610db6576040517f08c379a0000000000000000000000000000000000000000000000000000000008152600401610dad9061291e565b60405180910390fd5b60005b8383905081101561101f578173ffffffffffffffffffffffffffffffffffffffff1660096000868685818110610df257610df161293e565b5b9050602002016020810190610e0791906120d4565b7bffffffffffffffffffffffffffffffffffffffffffffffffffffffff19167bffffffffffffffffffffffffffffffffffffffffffffffffffffffff1916815260200190815260200160002060009054906101000a900473ffffffffffffffffffffffffffffffffffffffff1673ffffffffffffffffffffffffffffffffffffffff161415610ecb576040517f08c379a0000000000000000000000000000000000000000000000000000000008152600401610ec2906129b9565b60405180910390fd5b8160096000868685818110610ee357610ee261293e565b5b9050602002016020810190610ef891906120d4565b7bffffffffffffffffffffffffffffffffffffffffffffffffffffffff19167bffffffffffffffffffffffffffffffffffffffffffffffffffffffff1916815260200190815260200160002060006101000a81548173ffffffffffffffffffffffffffffffffffffffff021916908373ffffffffffffffffffffffffffffffffffffffff1602179055508173ffffffffffffffffffffffffffffffffffffffff16848483818110610fac57610fab61293e565b5b9050602002016020810190610fc191906120d4565b7bffffffffffffffffffffffffffffffffffffffffffffffffffffffff19167f14ebc1c32aa68f4d766e89f3e546cee249f7df25183fc10ab1568d91c2ce9b7b60405160405180910390a3808061101790612a08565b915050610db9565b50505050565b60096020528060005260406000206000915054906101000a900473ffffffffffffffffffffffffffffffffffffffff1681565b60086020528060005260406000206000915054906101000a900460ff1681565b60006110846000611a7f565b905090565b61109233610a42565b6110d1576040517f08c379a00000000000000000000000000000000000000000000000000000000081526004016110c8906126dc565b60405180910390fd5b6110db8282611b6c565b5050565b600660009054906101000a900460ff1681565b6110fb33610a42565b61113a576040517f08c379a0000000000000000000000000000000000000000000000000000000008152600401611131906126dc565b60405180910390fd5b6111647fdf8b4c520ffe197c5343c6f5aec59570151ef9a492f2c624fd45ddde6135ec4282610a75565b50565b600460009054906101000a900473ffffffffffffffffffffffffffffffffffffffff1681565b61119633610a42565b6111d5576040517f08c379a00000000000000000000000000000000000000000000000000000000081526004016111cc906126dc565b60405180910390fd5b600073ffffffffffffffffffffffffffffffffffffffff168173ffffffffffffffffffffffffffffffffffffffff161415611245576040517f08c379a000000000000000000000000000000000000000000000000000000000815260040161123c90612a9d565b60405180910390fd5b8073ffffffffffffffffffffffffffffffffffffffff163373ffffffffffffffffffffffffffffffffffffffff1614156112b4576040517f08c379a00000000000000000000000000000000000000000000000000000000081526004016112ab90612b09565b60405180910390fd5b6112de7fdf8b4c520ffe197c5343c6f5aec59570151ef9a492f2c624fd45ddde6135ec4282610a75565b6113087fdf8b4c520ffe197c5343c6f5aec59570151ef9a492f2c624fd45ddde6135ec4233610a96565b50565b7fdf8b4c520ffe197c5343c6f5aec59570151ef9a492f2c624fd45ddde6135ec4281565b61133833610a42565b611377576040517f08c379a000000000000000000000000000000000000000000000000000000000815260040161136e906126dc565b60405180910390fd5b80600660006101000a81548160ff02191690831515021790555050565b61139d33610a42565b6113dc576040517f08c379a00000000000000000000000000000000000000000000000000000000081526004016113d3906126dc565b60405180910390fd5b6113e7838383611abc565b505050565b600260009054906101000a900473ffffffffffffffffffffffffffffffffffffffff1681565b600061141d82611a7f565b9050919050565b60008073ffffffffffffffffffffffffffffffffffffffff1660096000847bffffffffffffffffffffffffffffffffffffffffffffffffffffffff19167bffffffffffffffffffffffffffffffffffffffffffffffffffffffff1916815260200190815260200160002060009054906101000a900473ffffffffffffffffffffffffffffffffffffffff1673ffffffffffffffffffffffffffffffffffffffff161415611506576007600080815260200190815260200160002060009054906101000a900473ffffffffffffffffffffffffffffffffffffffff169050611679565b6008600060096000857bffffffffffffffffffffffffffffffffffffffffffffffffffffffff19167bffffffffffffffffffffffffffffffffffffffffffffffffffffffff1916815260200190815260200160002060009054906101000a900473ffffffffffffffffffffffffffffffffffffffff1673ffffffffffffffffffffffffffffffffffffffff1673ffffffffffffffffffffffffffffffffffffffff16815260200190815260200160002060009054906101000a900460ff16156116425760096000837bffffffffffffffffffffffffffffffffffffffffffffffffffffffff19167bffffffffffffffffffffffffffffffffffffffffffffffffffffffff1916815260200190815260200160002060009054906101000a900473ffffffffffffffffffffffffffffffffffffffff169050611679565b6007600080815260200190815260200160002060009054906101000a900473ffffffffffffffffffffffffffffffffffffffff1690505b919050565b60008054906101000a900473ffffffffffffffffffffffffffffffffffffffff1681565b60006005600084815260200190815260200160002060000160008373ffffffffffffffffffffffffffffffffffffffff1673ffffffffffffffffffffffffffffffffffffffff16815260200190815260200160002060009054906101000a900460ff16905092915050565b61171633610a42565b611755576040517f08c379a000000000000000000000000000000000000000000000000000000000815260040161174c906126dc565b60405180910390fd5b61177f7fdf8b4c520ffe197c5343c6f5aec59570151ef9a492f2c624fd45ddde6135ec4233610a96565b565b6000801b81565b60076020528060005260406000206000915054906101000a900473ffffffffffffffffffffffffffffffffffffffff1681565b600160009054906101000a900473ffffffffffffffffffffffffffffffffffffffff1681565b6117ea82610a22565b6117f3816118a0565b6117fd838361199d565b505050565b600360009054906101000a900473ffffffffffffffffffffffffffffffffffffffff1681565b600061183382611c15565b806118995750600a6000837bffffffffffffffffffffffffffffffffffffffffffffffffffffffff19167bffffffffffffffffffffffffffffffffffffffffffffffffffffffff1916815260200190815260200160002060009054906101000a900460ff165b9050919050565b6118b1816118ac611995565b611c8f565b50565b6118be82826116a2565b6119915760016005600084815260200190815260200160002060000160008373ffffffffffffffffffffffffffffffffffffffff1673ffffffffffffffffffffffffffffffffffffffff16815260200190815260200160002060006101000a81548160ff021916908315150217905550611936611995565b73ffffffffffffffffffffffffffffffffffffffff168173ffffffffffffffffffffffffffffffffffffffff16837f2f8788117e7eff1d82e926ec794901d17c78024a50270940304540a733656f0d60405160405180910390a45b5050565b600033905090565b6119a782826116a2565b15611a7b5760006005600084815260200190815260200160002060000160008373ffffffffffffffffffffffffffffffffffffffff1673ffffffffffffffffffffffffffffffffffffffff16815260200190815260200160002060006101000a81548160ff021916908315150217905550611a20611995565b73ffffffffffffffffffffffffffffffffffffffff168173ffffffffffffffffffffffffffffffffffffffff16837ff6391f5c32d9c69d2a47ea670b442974b53935d1edc7fd64eb21e047a839171b60405160405180910390a45b5050565b60006007600083815260200190815260200160002060009054906101000a900473ffffffffffffffffffffffffffffffffffffffff169050919050565b611ac583611d2c565b611b04576040517f08c379a0000000000000000000000000000000000000000000000000000000008152600401611afb90612b75565b60405180910390fd5b8015611b5d57826007600084815260200190815260200160002060006101000a81548173ffffffffffffffffffffffffffffffffffffffff021916908373ffffffffffffffffffffffffffffffffffffffff1602179055505b611b678382611b6c565b505050565b80600860008473ffffffffffffffffffffffffffffffffffffffff1673ffffffffffffffffffffffffffffffffffffffff16815260200190815260200160002060006101000a81548160ff0219169083151502179055508173ffffffffffffffffffffffffffffffffffffffff167f72558d9bfba4210f9ef095c782589484151f6d90f7a81bb3cb9b33efc695d32482604051611c09919061211c565b60405180910390a25050565b60007f7965db0b000000000000000000000000000000000000000000000000000000007bffffffffffffffffffffffffffffffffffffffffffffffffffffffff1916827bffffffffffffffffffffffffffffffffffffffffffffffffffffffff19161480611c885750611c8782611d4f565b5b9050919050565b611c9982826116a2565b611d2857611cbe8173ffffffffffffffffffffffffffffffffffffffff166014611db9565b611ccc8360001c6020611db9565b604051602001611cdd929190612ca7565b6040516020818303038152906040526040517f08c379a0000000000000000000000000000000000000000000000000000000008152600401611d1f9190612d2b565b60405180910390fd5b5050565b6000808273ffffffffffffffffffffffffffffffffffffffff163b119050919050565b60007f01ffc9a7000000000000000000000000000000000000000000000000000000007bffffffffffffffffffffffffffffffffffffffffffffffffffffffff1916827bffffffffffffffffffffffffffffffffffffffffffffffffffffffff1916149050919050565b606060006002836002611dcc9190612d4d565b611dd69190612da7565b67ffffffffffffffff811115611def57611dee612dfd565b5b6040519080825280601f01601f191660200182016040528015611e215781602001600182028036833780820191505090505b5090507f300000000000000000000000000000000000000000000000000000000000000081600081518110611e5957611e5861293e565b5b60200101907effffffffffffffffffffffffffffffffffffffffffffffffffffffffffffff1916908160001a9053507f780000000000000000000000000000000000000000000000000000000000000081600181518110611ebd57611ebc61293e565b5b60200101907effffffffffffffffffffffffffffffffffffffffffffffffffffffffffffff1916908160001a90535060006001846002611efd9190612d4d565b611f079190612da7565b90505b6001811115611fa7577f3031323334353637383961626364656600000000000000000000000000000000600f861660108110611f4957611f4861293e565b5b1a60f81b828281518110611f6057611f5f61293e565b5b60200101907effffffffffffffffffffffffffffffffffffffffffffffffffffffffffffff1916908160001a905350600485901c945080611fa090612e2c565b9050611f0a565b5060008414611feb576040517f08c379a0000000000000000000000000000000000000000000000000000000008152600401611fe290612ea2565b60405180910390fd5b8091505092915050565b600082825260208201905092915050565b7f63616e6e6f742072656365697665204574686572000000000000000000000000600082015250565b600061203c601483611ff5565b915061204782612006565b602082019050919050565b6000602082019050818103600083015261206b8161202f565b9050919050565b600080fd5b600080fd5b60007fffffffff0000000000000000000000000000000000000000000000000000000082169050919050565b6120b18161207c565b81146120bc57600080fd5b50565b6000813590506120ce816120a8565b92915050565b6000602082840312156120ea576120e9612072565b5b60006120f8848285016120bf565b91505092915050565b60008115159050919050565b61211681612101565b82525050565b6000602082019050612131600083018461210d565b92915050565b600073ffffffffffffffffffffffffffffffffffffffff82169050919050565b600061216282612137565b9050919050565b61217281612157565b811461217d57600080fd5b50565b60008135905061218f81612169565b92915050565b600080600080600060a086880312156121b1576121b0612072565b5b60006121bf88828901612180565b95505060206121d088828901612180565b94505060406121e188828901612180565b93505060606121f288828901612180565b925050608061220388828901612180565b9150509295509295909350565b6000819050919050565b61222381612210565b811461222e57600080fd5b50565b6000813590506122408161221a565b92915050565b60006020828403121561225c5761225b612072565b5b600061226a84828501612231565b91505092915050565b61227c81612210565b82525050565b60006020820190506122976000830184612273565b92915050565b6000602082840312156122b3576122b2612072565b5b60006122c184828501612180565b91505092915050565b600080604083850312156122e1576122e0612072565b5b60006122ef85828601612231565b925050602061230085828601612180565b9150509250929050565b600080fd5b600080fd5b600080fd5b60008083601f84011261232f5761232e61230a565b5b8235905067ffffffffffffffff81111561234c5761234b61230f565b5b60208301915083602082028301111561236857612367612314565b5b9250929050565b60008060006040848603121561238857612387612072565b5b600084013567ffffffffffffffff8111156123a6576123a5612077565b5b6123b286828701612319565b935093505060206123c586828701612180565b9150509250925092565b6123d881612157565b82525050565b60006020820190506123f360008301846123cf565b92915050565b61240281612101565b811461240d57600080fd5b50565b60008135905061241f816123f9565b92915050565b6000806040838503121561243c5761243b612072565b5b600061244a85828601612180565b925050602061245b85828601612410565b9150509250929050565b6000819050919050565b600061248a61248561248084612137565b612465565b612137565b9050919050565b600061249c8261246f565b9050919050565b60006124ae82612491565b9050919050565b6124be816124a3565b82525050565b60006020820190506124d960008301846124b5565b92915050565b6000602082840312156124f5576124f4612072565b5b600061250384828501612410565b91505092915050565b6000819050919050565b61251f8161250c565b811461252a57600080fd5b50565b60008135905061253c81612516565b92915050565b60008060006060848603121561255b5761255a612072565b5b600061256986828701612180565b935050602061257a8682870161252d565b925050604061258b86828701612410565b9150509250925092565b6000602082840312156125ab576125aa612072565b5b60006125b98482850161252d565b91505092915050565b60006125cd82612491565b9050919050565b6125dd816125c2565b82525050565b60006020820190506125f860008301846125d4565b92915050565b7f50726f78793a20696d706c204f522070726f78792069732066616c7365000000600082015250565b6000612634601d83611ff5565b915061263f826125fe565b602082019050919050565b6000602082019050818103600083015261266381612627565b9050919050565b7f41636365737369626c653a2043616c6c6572206973206e6f7420616e2061646d60008201527f696e000000000000000000000000000000000000000000000000000000000000602082015250565b60006126c6602283611ff5565b91506126d18261266a565b604082019050919050565b600060208201905081810360008301526126f5816126b9565b9050919050565b7f416363657373436f6e74726f6c3a2063616e206f6e6c792072656e6f756e636560008201527f20726f6c657320666f722073656c660000000000000000000000000000000000602082015250565b6000612758602f83611ff5565b9150612763826126fc565b604082019050919050565b600060208201905081810360008301526127878161274b565b9050919050565b7f696e707574206973207a65726f00000000000000000000000000000000000000600082015250565b60006127c4600d83611ff5565b91506127cf8261278e565b602082019050919050565b600060208201905081810360008301526127f3816127b7565b9050919050565b7f73616d6520616464720000000000000000000000000000000000000000000000600082015250565b6000612830600983611ff5565b915061283b826127fa565b602082019050919050565b6000602082019050818103600083015261285f81612823565b9050919050565b7f50726f78793a205f73656c6563746f727327732073697a65206973207a65726f600082015250565b600061289c602083611ff5565b91506128a782612866565b602082019050919050565b600060208201905081810360008301526128cb8161288f565b9050919050565b7f50726f78793a205f696d70206973206e6f7420616c6976650000000000000000600082015250565b6000612908601883611ff5565b9150612913826128d2565b602082019050919050565b60006020820190508181036000830152612937816128fb565b9050919050565b7f4e487b7100000000000000000000000000000000000000000000000000000000600052603260045260246000fd5b7f4c69717569646974795661756c7450726f78793a2073616d6520696d70000000600082015250565b60006129a3601d83611ff5565b91506129ae8261296d565b602082019050919050565b600060208201905081810360008301526129d281612996565b9050919050565b7f4e487b7100000000000000000000000000000000000000000000000000000000600052601160045260246000fd5b6000612a138261250c565b91507fffffffffffffffffffffffffffffffffffffffffffffffffffffffffffffffff821415612a4657612a456129d9565b5b600182019050919050565b7f41636365737369626c653a207a65726f20616464726573730000000000000000600082015250565b6000612a87601883611ff5565b9150612a9282612a51565b602082019050919050565b60006020820190508181036000830152612ab681612a7a565b9050919050565b7f41636365737369626c653a2073616d652061646d696e00000000000000000000600082015250565b6000612af3601683611ff5565b9150612afe82612abd565b602082019050919050565b60006020820190508181036000830152612b2281612ae6565b9050919050565b7f50726f78793a206e6f7420636f6e747261637420616464726573730000000000600082015250565b6000612b5f601b83611ff5565b9150612b6a82612b29565b602082019050919050565b60006020820190508181036000830152612b8e81612b52565b9050919050565b600081905092915050565b7f416363657373436f6e74726f6c3a206163636f756e7420000000000000000000600082015250565b6000612bd6601783612b95565b9150612be182612ba0565b601782019050919050565b600081519050919050565b60005b83811015612c15578082015181840152602081019050612bfa565b83811115612c24576000848401525b50505050565b6000612c3582612bec565b612c3f8185612b95565b9350612c4f818560208601612bf7565b80840191505092915050565b7f206973206d697373696e6720726f6c6520000000000000000000000000000000600082015250565b6000612c91601183612b95565b9150612c9c82612c5b565b601182019050919050565b6000612cb282612bc9565b9150612cbe8285612c2a565b9150612cc982612c84565b9150612cd58284612c2a565b91508190509392505050565b6000601f19601f8301169050919050565b6000612cfd82612bec565b612d078185611ff5565b9350612d17818560208601612bf7565b612d2081612ce1565b840191505092915050565b60006020820190508181036000830152612d458184612cf2565b905092915050565b6000612d588261250c565b9150612d638361250c565b9250817fffffffffffffffffffffffffffffffffffffffffffffffffffffffffffffffff0483118215151615612d9c57612d9b6129d9565b5b828202905092915050565b6000612db28261250c565b9150612dbd8361250c565b9250827fffffffffffffffffffffffffffffffffffffffffffffffffffffffffffffffff03821115612df257612df16129d9565b5b828201905092915050565b7f4e487b7100000000000000000000000000000000000000000000000000000000600052604160045260246000fd5b6000612e378261250c565b91506000821415612e4b57612e4a6129d9565b5b600182039050919050565b7f537472696e67733a20686578206c656e67746820696e73756666696369656e74600082015250565b6000612e8c602083611ff5565b9150612e9782612e56565b602082019050919050565b60006020820190508181036000830152612ebb81612e7f565b905091905056fea2646970667358221220d1ddb8fca49da2db7cecb1d26ec6e1da63d2da81e2667082c4317c9fd6a703c764736f6c634300080c0033",
  "linkReferences": {},
  "deployedLinkReferences": {}
}